:020000040000FA
:10000000F7EF3FF0C96E1200FBEF31F00AEC18F089
:1000100080EC11F0FDD71200C3EF37F0D9CFE5FF28
:10002000E1CFD9FF00C0E5FF01C0E5FF02C0E5FF59
:1000300003C0E5FF04C0E5FF05C0E5FF06C0E5FF1E
:1000400007C0E5FF08C0E5FF09C0E5FF0AC0E5FFFE
:100050000BC0E5FF0CC0E5FF0DC0E5FF0EC0E5FFDE
:100060000FC0E5FF10C0E5FF11C0E5FF12C0E5FFBE
:1000700013C0E5FF14C0E5FF15C0E5FF16C0E5FF9E
:1000800017C0E5FF18C0E5FF19C0E5FF1AC0E5FF7E
:100090001BC0E5FF1CC0E5FF1DC0E5FF1EC0E5FF5E
:1000A0001FC0E5FF20C0E5FF21C0E5FF22C0E5FF3E
:1000B00023C0E5FF24C0E5FF25C0E5FF26C0E5FF1E
:1000C00027C0E5FF020EDBCF00F0030EDBCF01F00F
:1000D000040EDBCF02F00250086E0150076E005094
:1000E000066EE56A100EE56E0850E56E0750E56E87
:1000F0000650E56E800EE56E0F0EE56E230EE56E82
:1001000035EC2DF0080EE1262BCF03F02CCF04F0B8
:100110002DCF05F02ECF06F003C007F004C008F085
:1001200005C009F006C00AF0D8800AAED8900AE3EC
:100130000A1E091E081E076C05E1082A03E1092AA8
:10014000D8B40A2A23CF0BF024CF0CF0E86A0F01B1
:1001500024BFFF0E0D6E0E6ED8902731106E263123
:100160000F6ED89010320F322851E840E840C00B93
:1001700010122841E8403F0BE8BAC009116E126A1C
:1001800011BE12680F500B5C0F6E10500C58106EA1
:1001900011500D58116E12500E58126ED89012AEAA
:1001A000D880D8A04ED01250800F800F08E1000EEA
:1001B000115C05E1000E105C02E1010E0F5CD8B08D
:1001C00040D00A340A30166E0930156E0830146EAD
:1001D0000730136E31CF17F032CF18F0E86A0F01F5
:1001E00032BFFF0E196E800FF36E1650800FF35C56
:1001F00008E11550195C05E11450185C02E1135038
:10020000175C1FE30C50156E15260D34166ED89032
:10021000153616360B44E844FC0B146E0B50E844BC
:10022000E844030B15120F01256B1450266F15506F
:10023000276F1650286F2B6B2C6B2D6B2E6BEBEFF3
:1002400004F0D89009300C6E08300B6ED8900C3248
:100250000B32D8900C320B320A50E838E844E00BED
:100260000C120A38E8441F0BE8B8E0090E6A08507F
:10027000076E0950086ED89008320732D8900832BD
:1002800007320A50E840E840C00B08120A40E84034
:100290003F0B0BC009F00CC00AF0E86A0CBEFF0E61
:1002A0000D6E0E6E07C013F008C014F0E86A08BEA9
:1002B000FF0E156EE56E1550E56E1450E56E135089
:1002C000E56E0E50E56E0D50E56E0A50E56E095074
:1002D000E56EB7EC1FF0096EF3CF0AF0F4CF0DF026
:1002E000E9CF0EF0080EE12631CF13F032CF14F033
:1002F000E86A0F0132BFFF0E156E166EE56E1550DF
:10030000E56E1450E56E1350E56E0E50E56E0D501F
:10031000E56E0A50E56E0950E56E6EEC24F0096E4C
:10032000F3CF0AF0080EE12629CF0DF02ACF0EF008
:10033000E86A0F012ABFFF0E176E0E501B6E1B26B8
:1003400017341C6ED8901B361C360D44E844FC0B49
:100350001A6E0D50E844E844030B1B12196AD8804A
:1003600006AED890D8B07AD109C00DF00AC00EF010
:10037000E86A0ABEFF0E176E800FF36E1250800FF0
:10038000F35C08E11150175C05E110500E5C02E1CE
:100390000F500D5CD8B03AD10650800FF36E1C5050
:1003A000800FF35C08E11B50055C05E11A50045C0A
:1003B00002E11950035CD8B002D12FCF0DF030CF3D
:1003C0000EF0E86A0F0130BFFF0E176E186E035073
:1003D0000D2604500E2205501722065018220D50EB
:1003E0000F012B6F0E502C6F17502D6F18502E6F62
:1003F00031CF0DF032CF0EF02FCF17F030CF18F0F5
:100400000E50800FF36E1850800FF35C02E117500E
:100410000D5CD8B0B8D02BCF1DF02CCF1EF02DCF57
:100420001FF02ECF20F0D8901F30226E1E30216E8C
:10043000D89022322132D890223221322050E8380E
:10044000E844E00B22122038E8441F0BE8B8E0092A
:10045000246A21500B6E22500C6ED8901F30226EF1
:100460001E30216ED890223221322050E840E840E0
:10047000C00B22122040E8403F0B2150076E225053
:10048000086E0BC021F00CC022F0E86A0CBEFF0E13
:10049000236E246E07C025F008C026F0E86A08BE67
:1004A000FF0E276EE56E2750E56E2650E56E25504F
:1004B000E56E2450E56E2350E56E2250E56E215026
:1004C000E56EB7EC1FF0216EF3CF22F0F4CF23F0EE
:1004D000E9CF24F0080EE1260DC025F00EC026F06D
:1004E000E86A0EBEFF0E276EE56E2750E56E2650B9
:1004F000E56E2550E56E2450E56E2350E56E2250E2
:10050000E56E2150E56E6EEC24F0216EF3CF22F003
:10051000080EE1262150096E22500A6E09C021F012
:100520000AC022F0E86A0ABEFF0E236E246E125043
:10053000800FF36E2450800FF35C08E12350115CB0
:1005400005E12250105C02E121500F5C1CE20D50CD
:10055000175C0D6E0E5018580E6EE86A0EBEFF0E38
:10056000176E186E0D501D5E0E501E5A17501F5AF2
:100570001850205A1D500F012B6F1E502C6F1F500A
:100580002D6F20502E6F1C50800FF36E0F012E51D7
:10059000800FF35C08E12D511B5C05E12C511A5CC6
:1005A00002E12B51195CD8B0EFD119500F012B6F1C
:1005B0001A502C6F1B502D6F1C502E6FE5D11C5004
:1005C000800FF36E0650800FF35C08E105501B5C52
:1005D00005E104501A5C02E10350195CD8B0D4D193
:1005E0001350035C0D6E145004580E6E15500558D0
:1005F000176E16500658186E0D500F012B6F0E50C7
:100600002C6F17502D6F18502E6FBED12FCF0DF0BD
:1006100030CF0EF0E86A0F0130BFFF0E176E186E74
:1006200013500D2614500E22155017221650182262
:100630000D50035C0D6E0E5004580E6E1750055889
:10064000176E18500658186E0D500F012B6F0E5074
:100650002C6F17502D6F18502E6F96D10A1E096CF3
:10066000D8B40A2A09C00DF00AC00EF0E86A0ABE22
:10067000FF0E176E186E1250800FF36E1850800F19
:10068000F35C08E11750115C05E10E50105C02E1CB
:100690000D500F5CD8B055D11C1C186E1B1C176E6A
:1006A0001A1C0E6E191C0D6E0D2A04E10E2A02E1B1
:1006B000174A182A1850800FF36E0650800FF35C0B
:1006C00008E10550175C05E104500E5C02E103509F
:1006D0000D5CD8B00FD12FCF19F030CF1AF0E86AE7
:1006E0000F0130BFFF0E1B6E1C6E1950035C196E9C
:1006F0001A5004581A6E1B5005581B6E1C50065891
:100700001C6E19500F012B6F1A502C6F1B502D6F40
:100710001C502E6F31CF19F032CF1AF02FCF1BF0B3
:1007200030CF1CF01A50800FF36E1C50800FF35C1A
:1007300002E11B50195CD8B0C1D02BCF1DF02CCFDB
:100740001EF02DCF1FF02ECF20F0D8901F30226E3C
:100750001E30216ED89022322132D890223221329E
:100760002050E838E844E00B22122038E8441F0B00
:10077000E8B8E009236E246A23BE2468241E231EE1
:10078000221E216C05E1222A03E1232AD8B4242A5F
:1007900021500B6E22500C6ED8901F30226E1E30EE
:1007A000216ED890223221322050E840E840C00B20
:1007B00022122040E8403F0B221E216C02E1222A37
:1007C00000E12150076E2250086EE86A0CBEFF0E51
:1007D000216E226EE86A08BEFF0E236EE56E23507E
:1007E000E56E0850E56E0750E56E2250E56E21502B
:1007F000E56E0C50E56E0B50E56EB7EC1FF0076E22
:10080000F3CF08F0F4CF0BF0E9CF0CF0080EE1269F
:1008100019C021F01AC022F0E86A1ABEFF0E236E3A
:10082000E56E2350E56E2250E56E2150E56E0C50CA
:10083000E56E0B50E56E0850E56E0750E56E6EEC08
:1008400024F0076EF3CF08F0080EE126081E076CAF
:1008500002E1082A00E10750096E08500A6EE86AB2
:100860000ABEFF0E076E800FF36E1250800FF35C0E
:1008700008E11150075C05E110500A5C02E10F50DD
:10088000095C1CE219501B5C196E1A501C581A6E38
:10089000E86A1ABEFF0E076E086E19501D261A5020
:1008A0001E2207501F22085020221D500F012B6FBF
:1008B0001E502C6F1F502D6F20502E6F0F012E5188
:1008C000800FF36E1850800FF35C08E117502D5D18
:1008D00005E10E502C5D02E10D502B5DD8B054D0D7
:1008E0000D500F012B6F0E502C6F17502D6F18509D
:1008F0002E6F4AD00650800FF36E1850800FF35CB5
:1009000008E11750055C05E10E50045C02E10D5052
:10091000035CD8B039D013500324076E1450042060
:10092000086E15500520096E165006200A6E0750F5
:100930000F012B6F08502C6F09502D6F0A502E6F2E
:1009400023D02FCF07F030CF08F0E86A0F0130BF77
:10095000FF0E096E0A6E0750132608501422095024
:1009600015220A5016221350032614500422155043
:1009700005221650062203500F012B6F04502C6FD6
:1009800005502D6F06502E6FD8900F012D31046E3B
:100990002C31036ED890043203322E51E840E840E7
:1009A000C00B04122E41E8403F0BE8BAC009056EA7
:1009B000066A05BE066825510326265104222751E2
:1009C0000522285106220350256F0450266F05503A
:1009D000276F0650286FE56A100EE56E800EE56EF3
:1009E0000F0EE56E230EE56E0250E56E0150E56ECA
:1009F0000050E56E35EC2DF0080EE126E4CF27F02F
:100A0000E4CF26F0E4CF25F0E4CF24F0E4CF23F0C8
:100A1000E4CF22F0E4CF21F0E4CF20F0E4CF1FF0C8
:100A2000E4CF1EF0E4CF1DF0E4CF1CF0E4CF1BF0C8
:100A3000E4CF1AF0E4CF19F0E4CF18F0E4CF17F0C8
:100A4000E4CF16F0E4CF15F0E4CF14F0E4CF13F0C8
:100A5000E4CF12F0E4CF11F0E4CF10F0E4CF0FF0C8
:100A6000E4CF0EF0E4CF0DF0E4CF0CF0E4CF0BF0C8
:100A7000E4CF0AF0E4CF09F0E4CF08F0E4CF07F0C8
:100A8000E4CF06F0E4CF05F0E4CF04F0E4CF03F0C8
:100A9000E4CF02F0E4CF01F0E4CF00F0E4CFD9FFDF
:100AA0001200D9CFE5FFE1CFD9FF00C0E5FF01C0BB
:100AB000E5FF02C0E5FF03C0E5FF04C0E5FF05C098
:100AC000E5FF06C0E5FF07C0E5FF08C0E5FF09C078
:100AD000E5FF0AC0E5FF0BC0E5FF0CC0E5FF0DC058
:100AE000E5FF0EC0E5FF0FC0E5FF10C0E5FF11C038
:100AF000E5FF12C0E5FF13C0E5FF14C0E5FF15C018
:100B0000E5FF16C0E5FF17C0E5FF18C0E5FF19C0F7
:100B1000E5FF1AC0E5FF1BC0E5FF1CC0E5FF1DC0D7
:100B2000E5FF1EC0E5FF020EDBCF00F0030EDBCFBA
:100B300001F0040EDBCF02F0050EDBCF03F0060E52
:100B4000DBCF04F0070EDBCF05F0080EDBCF06F09D
:100B5000090EDBCF07F00A0EDBCF08F0096A0A6A3C
:100B600002C00DF00D50800A0DE1025006017C6FAD
:100B700001507B6F00507A6F060E016E7A0E006E88
:100B8000800E026E03C0E9FF04C0F3FF055066EC5F
:100B900040F00B6E0B50D8B407EF09F00B50250A4C
:100BA00002E0EEEF08F00C6A0D6A0E6A0F6A106A36
:100BB0000A0E116E126A136A146A200E156E1668F8
:100BC000176A2B0E186E032A02E3044A052A03C093
:100BD000E9FF04C0F3FF055066EC40F0196E250AEA
:100BE00013E11950E56E0250E56E0150E56E0050BC
:100BF000E56E8FEC2AF0040EE126094A0A2A032A40
:100C000002E3044A052ABED71950300A06E1300E25
:100C1000156E032A02E3044A052A03C0E9FF04C053
:100C2000F3FF055066EC40F02D0A06E1010E146E4C
:100C3000032A02E3044A052A03C0E9FF04C0F3FFC4
:100C4000055066EC40F0200A08E1010E176E200EF8
:100C5000186E032A02E3044A052A03C0E9FF04C010
:100C6000F3FF055066EC40F02B0A06E1010E176E0B
:100C7000032A02E3044A052A03C0E9FF04C0F3FF84
:100C8000055066EC40F0196E310E195C2BE33A0EFC
:100C9000195C28E203C019F004C01AF005C01BF06B
:100CA00019C0E9FF1AC0F3FF1B5066EC40F01C6E40
:100CB000300E1C5C11E33A0E1C5C0EE213500A0D60
:100CC000F3CF1DF01C501D26D00E1D24136E192AC3
:100CD00002E31A4A1B2AE4D719C003F01AC004F031
:100CE0001BC005F003C0E9FF04C0F3FF055066EC2C
:100CF00040F02E0A2DE1032A02E3044A052A166A6F
:100D000003C019F004C01AF005C01BF019C0E9FFB8
:100D10001AC0F3FF1B5066EC40F01C6E300E1C5CDA
:100D200011E33A0E1C5C0EE216500A0DF3CF1DF0D3
:100D30001C501D26D00E1D24166E192A02E31A4AD5
:100D40001B2AE4D719C003F01AC004F01BC005F039
:100D500003C0E9FF04C0F3FF055066EC40F0196ED4
:100D60006C0A07E1010E0C6E032A02E3044A052A0D
:100D700009D01950680A06E1010E0E6E032A02E33B
:100D8000044A052A03C0E9FF04C0F3FF055066ECDE
:100D900040F0750A06E1010E106E032A02E3044AD0
:100DA000052A03C0E9FF04C0F3FF055066EC40F0DC
:100DB000196E730A05E1010E0D6E200E156E3FD0FF
:100DC0001950780A03E1100E116E39D01950580AE3
:100DD00005E1100E116E010E126E31D01950630A2A
:100DE00002E1116A2CD019506F0A03E1080E116E4E
:100DF00026D01950660A03E1010E0F6E20D019505B
:100E0000640A1DE01950690A1AE0105005E0FF0E4F
:100E100003260422052213D01950E56E0250E56E18
:100E20000150E56E0050E56E8FEC2AF0040EE126CD
:100E3000094A0A2A032A02E3044A052AA3D60D50C6
:100E400021E00650030F0D6E000E0720196E000EF4
:100E500008201A6E0DC006F019C007F01AC008F07D
:100E6000FD0E0D26FF0E19221A220DC0E9FF19C032
:100E7000F3FF1A500CEC3FF00D6EF3CF19F0F4CFE6
:100E80001AF0FDD00F500DE0000E1A6E120E196E02
:100E9000960E0D6E040E0626000E07220822166816
:100EA000EED016680C5023E00650040F0C6E000EB6
:100EB00007200F6E000E08201B6E0CC006F00FC03E
:100EC00007F01BC008F0FC0E0C26FF0E0F221B22A1
:100ED0000CC0E9FF0FC0F3FF1B5075EC3EF00C6E29
:100EE000F3CF0FF0F4CF1BF0E9CF1CF067D00E501A
:100EF0002FE00650020F0E6E000E07201D6E000E32
:100F000008201E6E0EC006F01DC007F01EC008F0BF
:100F1000FE0E0E26FF0E1D221E220EC0E9FF1DC072
:100F2000F3FF1E50CBEC3FF00E6E0EC00CF00F6ABC
:100F30001B6A1C6A11500A0A03E11050D8B43ED053
:100F40000C500E6E0EC00CF00F6A1B6A1C6A36D075
:100F50000650020F0E6E000E07201D6E000E0820B8
:100F60001E6E0EC006F01DC007F01EC008F0FE0E7B
:100F70000E26FF0E1D221E220EC0E9FF1DC0F3FF2C
:100F80001E50CBEC3FF00E6EF3CF1DF00EC00CF0F8
:100F90001DC00FF0E86A1DBEFF0E1B6E1C6E1150C7
:100FA0000A0A02E110500AE00C500E6E0F501D6E3E
:100FB0000EC00CF01DC00FF01B6A1C6A060E196EE5
:100FC0003B0E0D6E800E1A6E1150D8B440D01050EA
:100FD00013E01150E56E060EE56E3B0EE56E1C50FB
:100FE000E56E1B50E56E0F50E56E0C50E56E92EC11
:100FF00023F0070EE12612D01150E56E060EE56EC5
:101000003B0EE56E1C50E56E1B50E56E0F50E56E15
:101010000C50E56E98EC31F0070EE12617502FE0EA
:101020000DC0E9FF19C0F3FF1A5066EC40F02D0A1D
:1010300026E0FF0E0D2619221A2218C0E5FF0DC06A
:10104000E9FF19C0F3FF1A50F8EC40F018D00CC0BB
:10105000E5FF0DC0E9FF19C0F3FF1A50F8EC40F0AE
:101060000D50010F0C6E000E19200E6E000E1A208E
:10107000E56A0CC0E9FF0EC0F3FFF8EC40F00DC0CC
:101080000CF019C00EF01AC00FF013C010F0105081
:1010900010E00CC0E9FF0EC0F3FF0F5066EC40F00B
:1010A000176E175006E00C2A02E30E4A0F2A1006AC
:1010B000EED710C013F014501EE109C00CF00AC0A6
:1010C0000EF010C00FF00F5010E01550E56E0250FA
:1010D000E56E0150E56E0050E56E8FEC2AF0040ECF
:1010E000E1260C4A0E2A0F06EED70CC009F00EC0FE
:1010F0000AF00FC013F016C00CF00DC00DF019C0AF
:101100000EF01AC00FF009C010F00AC015F00DC0A3
:10111000E9FF0EC0F3FF0F5066EC40F0166E16505C
:10112000D8B43ED00CC016F0176A161E171E165003
:10113000171005E00CC016F00C06165031E00DC07B
:10114000E9FF0EC0F3FF0F5066EC40F0116E125035
:1011500010E01150E56E88EC3FF0166EE652165026
:1011600004E0DF0E1114166E02D011C016F016C086
:1011700011F01150E56E0250E56E0150E56E005021
:10118000E56E8FEC2AF0040EE1260D2A02E30E4AEA
:101190000F2A104A152A1350D8B4B9D71306B7D757
:1011A00010C009F015C00AF014502BE010C00CF06C
:1011B00015C00DF013C00EF00E501FE0200EE56EAE
:1011C0000250E56E0150E56E0050E56E8FEC2AF09E
:1011D000040EE1260C4A0D2A0E06EED70B50E56EE2
:1011E0000250E56E0150E56E0050E56E8FEC2AF07E
:1011F000040EE126094A0A2A04D00CC009F00DC0E9
:101200000AF0032A02E3044A052AC2EF05F00AC0E5
:10121000F3FF0950E4CF1EF0E4CF1DF0E4CF1CF043
:10122000E4CF1BF0E4CF1AF0E4CF19F0E4CF18F0CC
:10123000E4CF17F0E4CF16F0E4CF15F0E4CF14F0CC
:10124000E4CF13F0E4CF12F0E4CF11F0E4CF10F0CC
:10125000E4CF0FF0E4CF0EF0E4CF0DF0E4CF0CF0CC
:10126000E4CF0BF0E4CF0AF0E4CF09F0E4CF08F0CC
:10127000E4CF07F0E4CF06F0E4CF05F0E4CF04F0CC
:10128000E4CF03F0E4CF02F0E4CF01F0E4CF00F0CC
:10129000E4CFD9FF12003C4E4F20464C4F41543E04
:1012A0000000D9CFE5FFE1CFD9FF00C0E5FF01C0C5
:1012B000E5FF02C0E5FF03C0E5FF04C0E5FF05C090
:1012C000E5FF06C0E5FF07C0E5FF08C0E5FF09C070
:1012D000E5FF0AC0E5FF0BC0E5FF0CC0E5FF0DC050
:1012E000E5FF020EDBCF00F0030EDBCF01F0040EB2
:1012F000DBCF02F00050090F066E000E0120076ED2
:10130000000E0220086E0B6E07500A6E0650096E22
:10131000E56A0D0EE56E0B50E56E0A50E56E09505C
:10132000E56E800EE56E060EE56E200EE56E35EC80
:101330002DF0080EE12600C009F001C00AF002C03D
:101340000BF0E56AE56E0B50E56E0A50E56E09504C
:10135000E56E800EE56E040EE56E810EE56E35ECF1
:101360002DF0080EE12681C403F00350010A04E0C9
:101370000350030A01E019D106013551036E3651BD
:10138000046E06012851056E2951096E0550035C53
:1013900006017F6F09500458806F06013551060120
:1013A000286F060136510601296F060137510601E3
:1013B0002A6F0601385106012B6F06017F518011FB
:1013C000D8A47FD0C7EC3CF0036EF3CF04F0F4CF89
:1013D00005F0E9CF09F006012D510A6E2E510B6E72
:1013E0002F510C6E30510D6E0A50035E0B50045A93
:1013F0000C50055A0D50095A03500601576F0450FE
:10140000586F0550596F7F0E09145A6F06012CB1A1
:1014100025D0060158355A31046E5931036E043413
:1014200004320332000E04BEFF0E096E056E86C440
:101430000AF00B6A0C6A0D6A0D50800FF36E0950AA
:10144000800FF35C08E105500C5C05E104500B5C77
:1014500002E103500A5C02E206012C8106012CB174
:101460004AD024C603F025C604F026C605F027C6D8
:1014700009F006015A51800FF36E0950800FF35C9A
:1014800008E10550595D05E10450585D02E1035043
:10149000575D08E203C057F604C058F605C059F678
:1014A00009C05AF6060139A303D0010E036E01D01C
:1014B000036803C07FF60601806B03AE01D080692C
:1014C0001AD006012C9131C657F632C658F633C6EB
:1014D00059F634C65AF6060157510601246F060123
:1014E00058510601256F060159510601266F060164
:1014F0005A510601276F06015A51800F800F08E1EB
:10150000000E595D05E1000E585D02E1010E575DC8
:1015100006E206015B6B5C6B5D6B5E6B46D00601A1
:101520005751036E5851046E5951056E5A51E56E6C
:101530000550E56E0450E56E0350E56E010EE56E54
:10154000000EE56AE56AE56A58EC28F0036EF3CF11
:1015500004F0F4CF05F0E9CF09F0080EE1267FC6CC
:101560000AF080C60BF0E86A060180BFFF0E0C6E21
:101570000D6E0950E56E0550E56E0450E56E0350A2
:10158000E56E0D50E56E0C50E56E0B50E56E0A50A1
:10159000E56EB7EC1FF006015B6FF3CF5CF6F4CF9E
:1015A0005DF6E9CF5EF6080EE126020E0401815DCC
:1015B000D8A045D1060139A142D10050230F036EB6
:1015C000000E0120046E000E0220E56E0450E56E50
:1015D0000350E56E0EEC00F0030EE1260050230FE1
:1015E000036E000E0120046E000E0220056E020E36
:1015F0000326000E0422052203C0E9FF04C0F3FF06
:10160000055075EC3EF0F3CF04F0F4CF05F0E9CFD0
:1016100009F00450036E0550046ED8900432033272
:10162000D890043203320950E840E840C00B04125D
:101630000940E8403F0BE8BAC009056E096A05BEDB
:10164000096806013551035C06015F6F06013651DA
:1016500004580601606F0601375105580601616F95
:101660000601385109580601626FD88062AFD890E0
:1016700022E30401831D046E821D036E034A042AC3
:10168000E86A04BEFF0E056E096E06016251800F06
:10169000F36E0950800FF35C08E10550615D05E1D0
:1016A0000450605D02E103505F5D05E306015F6B7E
:1016B000606B616B626B06016251800F800F08E105
:1016C000000E615D05E1000E605D02E1010E5F5DEF
:1016D0001EE382C403F083C404F0E86A040183BFFC
:1016E000FF0E056E800FF36E06016251800FF35CF2
:1016F00008E16151055C05E16051045C02E15F5164
:10170000035C05E306015F6B606B616B626B040158
:10171000875109E0E86CD89006015F376037613780
:101720006237010FF9E306016251800F800F08E173
:10173000000E615D05E1800E605D02E1000E5F5DFF
:1017400007E306015F697F0E606F616B626B14D007
:1017500006016251800F810F08E1FF0E615D05E116
:10176000800E605D02E1000E5F5D06E206015F6BC8
:10177000800E606F616962690050330F036E000E66
:101780000120046E000E0220056E06015F51096EF5
:101790006051E56E0950E56E0550E56E0450E56E4A
:1017A0000350E56EB1EC13F0050EE1260401815102
:1017B000030A23E10050330F036E000E0120046E74
:1017C000000E0220056E0B0E0326000E04220522D9
:1017D00003C0E9FF04C0F3FF055075EC3EF0F3CF02
:1017E00004F0F4CF05F00450036E0550046E03506E
:1017F0000601206F0450216F22D00050330F036E7A
:10180000000E0120046E000E0220056E0B0E032652
:10181000000E0422052203C0E9FF04C0F3FF0550B7
:1018200075EC3EF0F3CF04F0F4CF05F00450036EF6
:101830000550046E03500601226F0450236F81C4CB
:1018400003F00350010A04E00350030A01E07DD0D5
:1018500020C603F021C604F0E86A060121BFFF0E8E
:10186000056E096E06015B51035C06015F6F0601A0
:101870005C5104580601606F06015D510558060170
:10188000616F06015E5109580601626F800F800F7B
:1018900008E1000E615D05E1800E605D02E1000E71
:1018A0005F5D07E306015F697F0E606F616B626BCE
:1018B00014D006016251800F810F08E1FF0E615DB7
:1018C00005E1800E605D02E1000E5F5D06E206014B
:1018D0005F6B800E606F616962690050440F036E38
:1018E000000E0120046E000E0220056E06015F51FD
:1018F000096E6051E56E0950E56E0550E56E0450C5
:10190000E56E0350E56EB1EC13F0050EE126440ED2
:101910000026000E012202220B0E0026000E0122DC
:10192000022200C0E9FF01C0F3FF025075EC3EF057
:10193000F3CF01F0F4CF02F00150006E0250016EBF
:1019400000500601226F0150236F0850086EE56AAF
:101950000D0EE56E800EE56E060EE56E200EE56E50
:101960000850E56E0750E56E0650E56E35EC2DF03B
:10197000080EE126E4CF0DF0E4CF0CF0E4CF0BF03D
:10198000E4CF0AF0E4CF09F0E4CF08F0E4CF07F0A9
:10199000E4CF06F0E4CF05F0E4CF04F0E4CF03F0A9
:1019A000E4CF02F0E4CF01F0E4CF00F0E4CFD9FFC0
:1019B000120025642025640A0000D9CFE5FFE1CF9D
:1019C000D9FF00C0E5FF01C0E5FF02C0E5FF03C08D
:1019D000E5FF04C0E5FF05C0E5FF06C0E5FF07C061
:1019E000E5FF08C0E5FF09C0E5FF0AC0E5FF0BC041
:1019F000E5FF0CC0E5FF020EDBCF00F0030EDBCFEE
:101A000001F0040EDBCF02F0036A046AF1EC3CF053
:101A1000056EFE0A01E077D025EC35F0F1EC3CF0E4
:101A2000066E030E065CD8A05AD0060E065CD8B02F
:101A300056D0FD0E0624076EFA6AFB6A0734FA36A2
:101A4000E834FA36FC0B560FE56E1A0EFA22000E39
:101A5000FB22E450F96E31EF0DF043EF0DF05CEF37
:101A60000DF00050090F076E000E0120086E000EE9
:101A7000022007C0E9FF08C0F3FFCBEC3FF0036E84
:101A8000F3CF04F02CD00050090F076E000E012098
:101A9000086E000E0220096E020E0726000E0822B4
:101AA000092207C0E9FF08C0F3FF0950CBEC3FF063
:101AB000036EF3CF04F013D00050070F076E000E33
:101AC0000120086E000E022007C0E9FF08C0F3FFE6
:101AD00066EC40F0010B076E07C003F0046A06C015
:101AE00007F00450E56E0350E56EE56A0750E56EB9
:101AF000000EE56E190EE56EB20EE56ECAEC38F01A
:101B0000070EE1269AD1080E055CD8B096D1FA6A84
:101B1000FB6A0534FA36E834FA36FC0B2C0FE56E16
:101B20001B0EFA22000EFB22E450F96EA6EF0DF018
:101B3000C1EF0DF0D3EF0DF0E5EF0DF017EF0EF064
:101B40004DEF0EF06CEF0EF0C9EF0EF00050230FCA
:101B5000056E000E0120076E000E0220E56E075094
:101B6000E56E0550E56EF8EC19F0030EE126020E65
:101B7000E56E00C0E9FF01C0F3FF0250F8EC40F051
:101B80005CD10050330F056E000E0120076E000E71
:101B90000220E56E0750E56E0550E56E79EC1EF00B
:101BA000030EE1264AD10050440F056E000E0120BD
:101BB000076E000E0220E56E0750E56E0550E56EDB
:101BC00079EC1EF0030EE12638D10050090F056EA6
:101BD000000E0120076E000E0220086EF1EC3CF0B2
:101BE0000C6E0B6AE56A0CC0F4FF05C0E9FF07C084
:101BF000F3FF0850BFEC40F0F1EC3CF00A6A0B2612
:101C00000A500C220BC0E5FF0CC0F4FF05C0E9FF31
:101C100007C0F3FF0850BFEC40F0010EE56E00C0B6
:101C2000E9FF01C0F3FF0250F8EC40F006D100508C
:101C3000090F056E000E0120076E000E0220086ECF
:101C4000020E0526000E07220822F1EC3CF00C6E75
:101C50000B6AE56A0CC0F4FF05C0E9FF07C0F3FF9B
:101C60000850BFEC40F0F1EC3CF00A6A0B260A5039
:101C70000C220BC0E5FF0CC0F4FF05C0E9FF07C054
:101C8000F3FF0850BFEC40F0E56A00C0E9FF01C077
:101C9000F3FF0250F8EC40F0D0D00050070F056E73
:101CA000000E0120076E000E0220086EF1EC3CF0E1
:101CB000010BF46E05C0E9FF07C0F3FF085066ECA6
:101CC00040F0FE0BF410E56E05C0E9FF07C0F3FF1E
:101CD0000850F8EC40F0B1D0F1EC3CF0066E00504A
:101CE000160F056E000E0120076E000E0220086E12
:101CF00005500C0F096E000E07200A6E000E08201A
:101D00000B6E0650D880E866D8900C6A0C360C50E2
:101D1000D880E866D8900C6A0C360C50010BF46E33
:101D200009C0E9FF0AC0F3FF0B5066EC40F0FE0B60
:101D3000F410E56E09C0E9FF0AC0F3FF0B50F8ECA0
:101D400040F00650010A01E078D0080E0526000E8A
:101D500007220822E56AF46AF66AF76A05C0E9FF15
:101D600007C0F3FF085055EC40F00050230F056EFC
:101D7000000E0120066E000E0220E56AE56AE56E9F
:101D80000650E56E0550E56E02EC2AF0050EE126E0
:101D900054D0F1EC3CF0046E036AF1EC3CF0066ABE
:101DA0000326065004220050160F056E000E012077
:101DB000066E000E0220076E05500C0F086E000E16
:101DC0000620096E000E07200A6E08C0E9FF09C050
:101DD000F3FF66EC40F0E880E56E08C0E9FF09C05B
:101DE000F3FF0A50F8EC40F0080E0526000E06221C
:101DF000072203C008F004C009F008C0E5FF09C0CD
:101E0000F4FFF66AF76A05C0E9FF06C0F3FF075062
:101E100055EC40F0230E0026000E01220222045051
:101E2000E56E0350E56E0250E56E0150E56E005020
:101E3000E56EFDEC2FF0050EE126E4CF0CF0E4CFCB
:101E40000BF0E4CF0AF0E4CF09F0E4CF08F0E4CFE0
:101E500007F0E4CF06F0E4CF05F0E4CF04F0E4CFE0
:101E600003F0E4CF02F0E4CF01F0E4CF00F0E4CFE0
:101E7000D9FF120000C0E5FF01C0E5FF02C0E5FF89
:101E800003C0E5FF04C0E5FF05C0E5FF06C0E5FFB0
:101E900007C0E5FF08C0E5FF09C0E5FF0AC0E5FF90
:101EA0000BC0E5FF0CC0E5FF006A016A026A040E80
:101EB000025CD8B0E8D101C003F0012A100E035C27
:101EC000D8B0E1D10401132B100E135D01E3136BA5
:101ED00004011339E8441F0B036E046A850E0326C0
:101EE000060E042203C0E9FF04C0EAFFEFCF03F0AF
:101EF000070E1315046E010E056E000E066E0450DB
:101F000006E0E86CD89005360636010FFCE3076A58
:101F1000035005160750061605500610D880E866CF
:101F2000D890056A05360550D8A4C1D704011351CD
:101F3000020DF450046EF3CF03F0E00E0324056E9F
:101F4000000E0420066E05C0E9FF06C0EAFFEECFD2
:101F500005F0EFCF06F0040110A19DD0750E03240B
:101F6000076E050E0420086E07C0E9FF08C0EAFFEF
:101F7000EECF07F0EFCF08F00650800FF36E085059
:101F8000800FF35C02E10750055C03E2056A066A14
:101F900060D0950E0326050E042203C0E9FF04C09D
:101FA000EAFFEECF03F0EFCF04F00450800FF36EA2
:101FB0000650800FF35C02E10550035C04E2056803
:101FC0003F0E066E46D00750055C096E0850065855
:101FD0000A6EE86A0ABEFF0E0B6EE56E0B50E56EE8
:101FE0000A50E56E0950E56EE56AE56A400EE56E59
:101FF000000EE56AB7EC1FF0096EF3CF0AF0F4CFDC
:102000000BF0E9CF0CF0080EE1260750035C076ED9
:1020100008500458086EE86A08BEFF0E036EE56EAD
:102020000350E56E0850E56E0750E56E0C50E56E06
:102030000B50E56E0A50E56E0950E56E58EC28F03D
:10204000036EF3CF04F0080EE1260350056E045032
:10205000066E04010F51800FF36E0650800FF35C83
:1020600002E105500E5D03E3056A066A14D004011F
:102070000E51FF08036E3F0E0F55046E0650800F81
:10208000F36E0450800FF35C02E10350055C03E340
:1020900005683F0E066E04011351020DF450046EE4
:1020A000F3CF03F0550E0326050E042203C0E9FF0B
:1020B00004C0EAFFEECF03F0EFCF04F00350055C5D
:1020C000036E04500658046ED88004AED89004E322
:1020D000041E036CD8B4042A022A04010F51800F95
:1020E000F36E0450800FF35C02E103500E5DD8B034
:1020F000DED604011351020DF450086EF3CF07F041
:10210000550E0726050E082207C0E9FF08C0EAFFA2
:1021100005C0EEFF06C0EFFF040110A55AD0040170
:102120001351020DF450086EF3CF07F0B50E0724DB
:10213000096E050E08200A6E09C0E9FF0AC0EAFF11
:10214000EECF0BF0EFCF0CF00B500C10D8B441D009
:102150005C0E0726040E082207C0E9FF08C0EAFF4C
:10216000EECF07F0EFCF08F00750055C036E085084
:102170000658046E03101CE00450800F800F02E12B
:10218000010E035C076A07360C50800F800F02E1D6
:10219000010E0B5C0B6A0B3607500B1809E109C0E6
:1021A000E9FF0AC0EAFF03C0EEFF04C0EFFF7FD6DD
:1021B00004011351020DF450046EF3CF03F0B50E79
:1021C0000326050E042203C0E9FF04C0EAFFEE6AFD
:1021D000EF6A040110A343D000500EE100C003F0E9
:1021E000002A046A140E0326040E042203C0E9FF29
:1021F00004C0EAFF420EEF6E00C003F0002A046A3A
:10220000140E0326040E0422640E04011325076E27
:1022100003C0E9FF04C0EAFF07C0EFFF00C003F0FE
:10222000002A046A140E0326040E04220650076EC8
:1022300003C0E9FF04C0EAFF07C0EFFF00C003F0DE
:10224000002A046A140E0326040E04220550076EA9
:1022500003C0E9FF04C0EAFF07C0EFFF28D613C49C
:1022600003F00650E56E0550E56EE56A0350E56E35
:10227000000EE56E5A0EE56E5E0EE56ECAEC38F0A5
:10228000070EE12614D602C001F000501DE0040143
:1022900010A31AD000C002F0002A036A140E02260E
:1022A000040E032202C0E9FF03C0EAFF0A0EEF6E2C
:1022B0000050E56E800EE56E040EE56E140EE56EC0
:1022C000B7EC2DF0040EE1260150E4CF0CF0E4CF82
:1022D0000BF0E4CF0AF0E4CF09F0E4CF08F0E4CF4C
:1022E00007F0E4CF06F0E4CF05F0E4CF04F0E4CF4C
:1022F00003F0E4CF02F0E4CF01F0E4CF00F01200ED
:1023000000C0E5FF01C0E5FF02C0E5FF03C0E5FF37
:1023100075EC29F0DEEC15F075EC29F0EAEC25F00F
:1023200006018F5103E13DEC25F006D006018F51E7
:10233000010A02E155EC3EF0C7EC3CF0006EF3CF31
:1023400001F0F4CF02F0E9CF03F00401F851005E90
:10235000F951015AFA51025AFB51035A039E3F0E9A
:10236000035C08E1FF0E025C05E1FF0E015C02E187
:10237000FF0E005CD8B0A8EF13F0C7EC3CF0F3CF31
:1023800001F0F4CF02F0E9CF03F0880F0401F86FF9
:10239000130E0120F96F000E0220FA6F000E0320C9
:1023A000FB6FC5EC21F0006E0050D8B43AEC0FF092
:1023B00004C0E5FFF2CF04F0F29E0401A95106012A
:1023C0002D6F0401AA5106012E6F0401AB510601C5
:1023D0002F6F0401AC510601306F0401AD510601AD
:1023E000316F0401AE510601326F0401AF51060195
:1023F000336F0401B0510601346F0401B15106017D
:10240000356F0401B2510601366F0401B351060164
:10241000376F0401B4510601386F0401B55106014C
:10242000396F0401AD6BAE6BAF6BB06B04BEF28E57
:10243000E4CF04F0800EE56E040EE56E930EE56EBB
:1024400051EC09F0030EE1269EC481F69FC482F68A
:1024500006018251800F7C0F02E1000E815D04E3D2
:1024600006018169030E826F06018251800F840F7D
:1024700002E1010E815D05E2010E0601816FFC0E95
:10248000826F06018251800F800F02E1010E815D93
:1024900010E306018251800FF36E04019751800F03
:1024A000F35C03E196510601815D03E20601816B55
:1024B000826BD880060182AFD89015E30401971D86
:1024C000016E961D006E004A012A0150800FF36EC6
:1024D00006018251800FF35C02E18151005C03E24E
:1024E0000601816B826B04019AA309D0B5A507D0C0
:1024F000D880060182AFD89002E3816B826BD880CE
:10250000060182AFD89007E38151FF0F006E030EE2
:102510008221016E04D081C600F082C601F000C0A5
:1025200083F601C084F606018351020BE840010BDB
:10253000E838E844F46EBD50DF0BF410BD6E8351F3
:10254000010B010BE838F46EBD50EF0BF410BD6EBB
:1025500084358431016E8331006E013401320032E2
:102560000050BE6ED880060182AFD89002E3898CFD
:1025700001D0899C04C0E5FFF2CF04F0F29E050172
:10258000165106012D6F0501175106012E6F050129
:10259000185106012F6F050119510601306F050111
:1025A0001A510601316F05011B510601326F0501F9
:1025B0001C510601336F05011D510601346F0501E1
:1025C0001E510601356F05011F510601366F0501C9
:1025D00020510601376F050121510601386F0501B1
:1025E00022510601396F05011A6B1B6B1C6B1D6BA9
:1025F00004BEF28EE4CF04F0800EE56E050EE56EAB
:10260000000EE56E51EC09F0030EE1260BC581F6D4
:102610000CC582F606018251800F7C0F02E1000E8C
:10262000815D04E306018169030E826F0601825118
:10263000800F840F02E1010E815D05E2010E0601AB
:10264000816FFC0E826F06018251800F800F02E1C4
:10265000010E815D10E306018251800FF36E0501CA
:102660000451800FF35C03E103510601815D03E235
:102670000601816B826BD880060182AFD89015E38A
:102680000501041D016E031D006E004A012A015060
:10269000800FF36E06018251800FF35C02E18151DD
:1026A000005C03E20601816B826B050107A309D080
:1026B00022A507D0D880060182AFD89002E3816BB3
:1026C000826BD880060182AFD89007E38151FF0F5B
:1026D000006E030E8221016E04D081C600F082C616
:1026E00001F000C083F601C084F606018351020B9D
:1026F000E840010BE838E844F46E6650DF0BF41054
:10270000666E8351010B010BE838F46E6650EF0BD7
:10271000F410666E84358431016E8331006E0134AD
:10272000013200320050676ED880060182AFD89027
:1027300002E3898E01D0899E75EC29F001C400F076
:1027400004010107005004E100C401F40601902BCC
:10275000E4CF03F0E4CF02F0E4CF01F0E4CF00F0E7
:102760001200D9CFE5FFE1CFD9FF00C0E5FF01C0DE
:10277000E5FF02C0E5FF03C0E5FF04C0E5FF05C0BB
:10278000E5FF06C0E5FF07C0E5FF08C0E5FF09C09B
:10279000E5FF0AC0E5FF0BC0E5FF020EDBCF00F04E
:1027A000030EDBCF01F0040EDBCF02F0050EDBCF12
:1027B00003F0060EDBCF04F002500A6E0150096EE2
:1027C0000050086EE56A110EE56E0A50E56E09507C
:1027D000E56E0850E56E800EE56E040EE56E260E81
:1027E000E56E35EC2DF0080EE12635C405F036C453
:1027F00006F0E86A040136BFFF0E076E06014A6F55
:102800000650496F0550486F476B03C005F004C080
:1028100006F0E86A04BEFF0E076E086E26C409F0D3
:10282000E56AE56AE56A0950E56E0850E56E07500D
:10283000E56E0650E56E0550E56EB7EC1FF005013C
:10284000F96FF3CFFAF5F4CFFBF5E9CFFCF5080EFD
:10285000E12604012751D8B4AFD00450800F800F77
:1028600002E1010E035C25E304012C51800F7C0F73
:1028700008E1000E2B5D05E1000E2A5D02E1000E6D
:10288000295D17E204013451800FF36E06014A51AD
:10289000800FF35C0DE149510401335D09E106014C
:1028A00048510401325D04E1060147510401315DE4
:1028B00033E3D88004AED890D8A043D004012C5183
:1028C000800F840F08E1000E2B5D05E1000E2A5DEC
:1028D00002E1010E295D35E306014A1D0A6E491D1C
:1028E000096E481D046E471D036E032A04E1042A85
:1028F00002E1094A0A2A0A50800FF36E040134519A
:10290000800FF35C08E13351095C05E13251045C4E
:1029100002E13151035C15E2055004012925036EE3
:1029200006502A21046E07502B21096E08502C21D5
:102930000A6E0350296F04502A6F09502B6F0A50FA
:102940002C6F040129390F0B036E2A39046EF00B2A
:10295000041A03262B51E838F00B04122B390F0B05
:10296000096E2C390A6EF00B0A1A0926F00E0AB607
:102970000A2627C40BF0E56AE56AE56A0B50E56EA6
:102980000A50E56E0950E56E0450E56E0350E56EA1
:10299000B7EC1FF0036EF3CF04F0F4CF09F0E9CFEA
:1029A0000AF0080EE12603500501F9270450FA2326
:1029B0000950FB230A50FC2304012851D8B465D0E8
:1029C0002D51055C06014B6F04012E51065806017E
:1029D0004C6F04012F51075806014D6F040130510F
:1029E000085806014E6F800F800F08E1010E4D5D03
:1029F00005E1000E4C5D02E1000E4B5D06E30601B1
:102A00004B694C694D6B4E6B13D006014E51800FD4
:102A1000810F08E1FF0E4D5D05E1000E4C5D02E106
:102A2000000E4B5D05E206014B6B4C6B4D694E6928
:102A300006014B514B25036E4C35046E4D35096E26
:102A40004E350A6E28C40BF0E56AE56AE56A0B505C
:102A5000E56E0A50E56E0950E56E0450E56E0350D0
:102A6000E56EB7EC1FF0036EF3CF04F0F4CF09F07E
:102A7000E9CF0AF0080EE12603500501F9270450BA
:102A8000FA230950FB230A50FC23055004012D6F43
:102A900006502E6F07502F6F0850306F06014A51B5
:102AA000800FF36E0501FC51800FF35C0DE1FB51CB
:102AB0000601495D09E10501FA510601485D04E19D
:102AC0000501F9510601475D11E206014751040174
:102AD000316F060148510401326F0601495104016A
:102AE000336F06014A510401346F3AD006014A1D82
:102AF000066E491D056E481D046E471D036E032AB0
:102B000004E1042A02E1054A062A0501FC51800F6E
:102B1000F36E0650800FF35C08E10550FB5D05E1A4
:102B20000450FA5D02E10350F95D0AE2035004012A
:102B3000316F0450326F0550336F0650346F10D030
:102B40000501F9510401316F0501FA510401326F99
:102B50000501FB510401336F0501FC510401346F81
:102B6000E56A110EE56E800EE56E040EE56E260E2A
:102B7000E56E0250E56E0150E56E0050E56E35ECF5
:102B80002DF0080EE126E4CF0BF0E4CF0AF0E4CFFD
:102B900009F0E4CF08F0E4CF07F0E4CF06F0E4CF8B
:102BA00005F0E4CF04F0E4CF03F0E4CF02F0E4CF8B
:102BB00001F0E4CF00F0E4CFD9FF120000C0E5FF40
:102BC00001C0E5FF02C0E5FF03C0E5FF04C0E5FF6B
:102BD00005C0E5FF06C0E5FF07C0E5FF08C0E5FF4B
:102BE00009C0E5FF0AC0E5FFC2A204D004011151EB
:102BF000F3EF17F004011251D8B41DD104011151A3
:102C0000020DF450016EF3CF00F0E00E0026000E2E
:102C1000012200C0E9FF01C0EAFFEECF00F0EFCFD4
:102C200001F0E80E1125026E036A040E032202C0B1
:102C3000E9FF03C0EAFFEFCF02F00250FF0A01E113
:102C400052D002380F0B036E920E0324046E056AF5
:102C50000F0E0522066A920E03260F0E062203C0EF
:102C6000E9FF06C0EAFFEFCF03F0070E0214066E7D
:102C7000010E076E065005E0E86CD8900736010F8C
:102C8000FDE3071C066E031604C0E9FF05C0EAFF5A
:102C900003C0EFFF02380F0B036E890E0324046E8E
:102CA000056A0F0E0522066A890E03260F0E0622FC
:102CB00003C0E9FF06C0EAFFEFCF03F0070E0214DE
:102CC000066E010E076E065005E0E86CD8900736D8
:102CD000010FFDE3071C066E031604C0E9FF05C0E3
:102CE000EAFF03C0EFFF04011151020DF450046E1E
:102CF000F3CF03F0E00E0326000E042200380F0B82
:102D0000056E0138066EF00B061A052606320532EE
:102D1000F80E06B406260550005C056E06500158F4
:102D2000066EC3CF07F0086A075005260850062232
:102D3000C4CF07F0086A07500A6E096A09500526D1
:102D40000A50062203C0E9FF04C0EAFF05C0EEFFF7
:102D500006C0EFFF04010D51010A01E06AD0040131
:102D60001151020DF450046EF3CF03F0E00E032472
:102D7000056E000E0420066E05C0E9FF06C0EAFFDE
:102D8000EECF00F0EFCF01F0750E0326050E042202
:102D900003C0E9FF04C0EAFFEECF05F0EFCF06F075
:102DA0009C0E0526D8A006060150800FF36E065033
:102DB000800FF35C02E10550005C0EE20050640FEE
:102DC000056E000E0120066E03C0E9FF04C0EAFF95
:102DD00005C0EEFF06C0EFFF04011151020DF450D3
:102DE000046EF3CF03F0950E0326050E042203C0F4
:102DF000E9FF04C0EAFFEECF05F0EFCF06F0640E66
:102E00000526D8B0062A0650800FF36E0150800FB9
:102E1000F35C02E10050055C0CE29C0E0026D8A099
:102E2000010603C0E9FF04C0EAFF00C0EEFF01C0D5
:102E3000EFFF0401126B0401112B100E115D01E371
:102E4000116B04011139E8441F0B006E016A850EF5
:102E50000026060E012200C0E9FF01C0EAFFEFCF05
:102E600000F0070E1115016E010E036E000E046EC8
:102E7000015006E0E86CD89003360436010FFCE3FD
:102E8000056A005003160550041603500410D8803C
:102E9000E866D890036A03360350D8A4A2D0000E87
:102EA00004011125006E016A060E012200C0E9FF2F
:102EB00001C0EAFFEFCF00F00044E844FC0B016ED4
:102EC0000128C26EE80E1125006E016A040E01226F
:102ED00000C0E9FF01C0EAFFEFCF02F00250FF0A95
:102EE00001E17BD002380F0B006E920E0024016EC0
:102EF000036A0F0E0322046A920E00260F0E0422AC
:102F000000C0E9FF04C0EAFFEFCF00F0070E021493
:102F1000046E010E056E045005E0E86CD89005368D
:102F2000010FFDE30550001201C0E9FF03C0EAFFF5
:102F300000C0EFFF380E006E0F0E016E02380F0B4F
:102F4000036E046A0350002604500122380E056EF9
:102F50000F0E066E055003260650042203C0E9FF3B
:102F600004C0EAFFEFCF03F0070E0216010E046E55
:102F7000025005E0E86CD8900436010FFDE30450E0
:102F8000031200C0E9FF01C0EAFF03C0EFFF0F0119
:102F900045830000000045930F0144930BC0E5FFFB
:102FA000F2CF0BF0F29E4481000000000000000010
:102FB0000000000000000000000000000000000011
:102FC0000000000000000000000000000000000001
:102FD00044910BBEF28EE4CF0BF0C282010E0401CD
:102FE000126F04011151E4CF0AF0E4CF09F0E4CFED
:102FF00008F0E4CF07F0E4CF06F0E4CF05F0E4CF2B
:1030000004F0E4CF03F0E4CF02F0E4CF01F0E4CF2A
:1030100000F0120000C0E5FF01C0E5FF02C0E5FFBF
:1030200003C0E5FF05C0E5FF30EC41F0AAEC36F047
:10303000330ECD6E9D809F80949E0F015A6B0F01C1
:103040005A830C0E0F015D6F93900F01576F8A9892
:10305000899C8B84040189859398929C94940401A3
:1030600092959283800E006E040E016E0F0E036E19
:10307000380E0026035001220F0E036E800E005EF4
:103080000350015A800E026E040E036E0F0E056E81
:10309000380E0226055003220F0E056E800E025ECA
:1030A0000550035A02C0E9FF03C0EAFFEFCF02F068
:1030B000029200C0E9FF01C0EAFF02C0EFFF928365
:1030C000800E006E040E016E0F0E036E380E002689
:1030D000035001220F0E036E800E005E0350015A52
:1030E000800E026E040E036E0F0E056E380E022661
:1030F000055003220F0E056E800E025E0550035A26
:1031000002C0E9FF03C0EAFFEFCF02F0029200C065
:10311000E9FF01C0EAFF02C0EFFF9283800E006E5C
:10312000040E016E0F0E036E380E002603500122AE
:103130000F0E036E800E005E0350015A800E026E69
:10314000040E036E0F0E056E380E02260550032284
:103150000F0E056E800E025E0550035A02C0E9FF95
:1031600003C0EAFFEFCF02F0029200C0E9FF01C006
:10317000EAFF02C0EFFF0C0EBD6EBD9ABD98BE6A9D
:10318000B96AB9860401936B020E946F956B0A0EAF
:10319000966F976B100E986F070E996F9A919A839E
:1031A000800EE56E040EE56EB60EE56ED2EC34F0E0
:1031B000030EE126800EE56E040EE56ED70EE56E79
:1031C000C4EC27F0030EE126800EE56E040EE56EDA
:1031D000C60EE56EC4EC27F0030EE1260401B16BC8
:1031E000B26BB36BB46BB591B5959C6B9D6B9E6BDD
:1031F0009F6BA46BA56BA66BA76B8A96899E8B8031
:10320000040189859396929E9490040192959283ED
:10321000800E006E040E016E0F0E036E380E002637
:10322000035001220F0E036E800E005E0350015A00
:10323000800E026E040E036E0F0E056E380E02260F
:10324000055003220F0E056E800E025E0550035AD4
:1032500002C0E9FF03C0EAFFEFCF02F0029200C014
:10326000E9FF01C0EAFF02C0EFFF9283800E006E0B
:10327000040E016E0F0E036E380E0026035001225D
:103280000F0E036E800E005E0350015A800E026E18
:10329000040E036E0F0E056E380E02260550032233
:1032A0000F0E056E800E025E0550035A02C0E9FF44
:1032B00003C0EAFFEFCF02F0029200C0E9FF01C0B5
:1032C000EAFF02C0EFFF9283800E006E040E016ED3
:1032D0000F0E036E380E0026035001220F0E036EF0
:1032E000800E005E0350015A800E026E040E036EC3
:1032F0000F0E056E380E0226055003220F0E056EC6
:10330000800E025E0550035A02C0E9FF03C0EAFFC7
:10331000EFCF02F0029200C0E9FF01C0EAFF02C055
:10332000EFFF0C0E666E669A6698676A0501006B81
:10333000020E016F026B0A0E036F046B100E056F15
:10334000070E066F07910783800EE56E050EE56E8A
:10335000230EE56ED2EC34F0030EE126800EE56E0E
:10336000050EE56E440EE56EC4EC27F0030EE12673
:10337000800EE56E050EE56E330EE56EC4EC27F0AB
:10338000030EE12605011E6B1F6B206B216B229142
:103390002295096B0A6B0B6B0C6B116B126B136B29
:1033A000146BB2EC2CF0AAEC36F017EC41F077EC91
:1033B00040F0C7EC3CF0F3CF01F0F4CF02F0E9CFDE
:1033C00003F0880F0401F86F130E0120F96F000E4F
:1033D0000220FA6F000E0320FB6FE4CF05F0E4CF6C
:1033E00003F0E4CF02F0E4CF01F0E4CF00F01200EC
:1033F000D9CFE5FFE1CFD9FF00C0E5FF01C0E5FF70
:1034000002C0E5FF03C0E5FF04C0E5FF05C0E5FF1E
:1034100006C0E5FF07C0E5FF08C0E5FF09C0E5FFFE
:103420000AC0E5FF0BC0E5FF020EDBCF00F0030E84
:10343000DBCF01F0040EDBCF02F0036A046AF1EC8B
:103440003CF0056EFE0A01E094D025EC35F0F1EC7D
:103450003CF0066E06500EE00650010A1DE00650D4
:10346000020A2CE006500A0A3BE006500B0A01E172
:1034700042D06DD00050060F076E000E0120086E7E
:10348000000E022007C0E9FF08C0F3FFCBEC3FF0BD
:10349000036EF3CF04F05BD000500C0F076E000EEC
:1034A0000120086E000E022007C0E9FF08C0F3FFEC
:1034B000CBEC3FF0036EF3CF04F049D000500E0F79
:1034C000076E000E0120086E000E022007C0E9FF03
:1034D00008C0F3FFCBEC3FF0036EF3CF04F037D01E
:1034E00000C0E9FF01C0F3FF0250CBEC3FF0036ED8
:1034F000F3CF04F02CD00050020F076E000E012015
:10350000086E000E0220096E07C0E9FF08C0F3FF35
:10351000095075EC3EF0F3CF08F0F4CF09F0E9CF95
:103520000AF00850076E0950086ED890083207322A
:10353000D890083207320A50E840E840C00B081221
:103540000A40E8403F0B0750036E0850046E0450D9
:10355000E56E0350E56EE56A0650E56E000EE56E19
:103560006A0EE56E420EE56ECAEC38F0070EE126F3
:10357000DBD0055014E00550010A3AE00550020A7C
:1035800001E15FD005500A0A01E184D005500B0A21
:1035900001E199D005500C0A01E1AED0C5D0005030
:1035A000060F056E000E0120066E000E0220076E4B
:1035B000F1EC3CF00B6E0A6AE56A0BC0F4FF05C043
:1035C000E9FF06C0F3FF0750BFEC40F0F1EC3CF020
:1035D000096A0A2609500B220AC0E5FF0BC0F4FF56
:1035E00005C0E9FF06C0F3FF0750BFEC40F09CD0D8
:1035F00000500C0F056E000E0120066E000E02201A
:10360000076EF1EC3CF00B6E0A6AE56A0BC0F4FF42
:1036100005C0E9FF06C0F3FF0750BFEC40F0F1EC36
:103620003CF0096A0A2609500B220AC0E5FF0BC0CC
:10363000F4FF05C0E9FF06C0F3FF0750BFEC40F000
:1036400073D000500E0F056E000E0120066E000EA6
:103650000220076EF1EC3CF00B6E0A6AE56A0BC0C3
:10366000F4FF05C0E9FF06C0F3FF0750BFEC40F0D0
:10367000F1EC3CF0096A0A2609500B220AC0E5FF6A
:103680000BC0F4FF05C0E9FF06C0F3FF0750BFEC15
:1036900040F04AD0F1EC3CF0046E036AF1EC3CF0EF
:1036A000066A0326065004220450E56E0350E56EB8
:1036B0000250E56E0150E56E0050E56EE9EC3AF01F
:1036C000050EE12631D0F1EC3CF0046E036AF1EC1A
:1036D0003CF0066A0326065004220450E56E0350AF
:1036E000E56E0250E56E0150E56E0050E56E02ECAD
:1036F0002AF0050EE12618D0F1EC3CF0046E036AC6
:10370000F1EC3CF0066A0326065004220450E56EF4
:103710000350E56E0250E56E0150E56E0050E56E17
:10372000FDEC2FF0050EE126E4CF0BF0E4CF0AF01C
:10373000E4CF09F0E4CF08F0E4CF07F0E4CF06F0DF
:10374000E4CF05F0E4CF04F0E4CF03F0E4CF02F0DF
:10375000E4CF01F0E4CF00F0E4CFD9FF120000C0C5
:10376000E5FF01C0E5FF02C0E5FF03C0E5FF9EA045
:103770006CD1006A040180B3002A0050010BF46E82
:1037800004019B51FE0BF4109B6F040180B308D021
:103790000401B16BB26BB36BB46BB581B58502D06C
:1037A0000401B595006A04019BB1002A016A9BB52A
:1037B000012A0050011801E190D0006A04019BB178
:1037C000002A0050010BE844E844F46E9B51FB0BC7
:1037D000F4109B6FA951AD5D006EAA51AE59016EF8
:1037E000AB51AF59026EAC51B059036E0050AD6F82
:1037F0000150AE6F0250AF6F0350B06F0401FC5127
:103800000401A96F0401FD510401AA6F0401FE51D6
:103810000401AB6F0401FF510401AC6F0401FC51C2
:103820000026FD510122FE510222FF5103220050C9
:103830000401AD6F0150AE6F0250AF6F0350B06F17
:10384000006A040180B3002A0050010BE844F46EC2
:1038500004019B51FD0BF4109B6F006A9BB1002A81
:10386000016A9BB3012A0150D880E866D890016AAA
:1038700001360150001A005019E0B1C400F0B2C482
:1038800001F0B3C402F0B4C403F0002A04E3012A37
:1038900002E3024A032A00500401B16F0150B26FE3
:1038A0000250B36F0350B46FB58317D0B1C400F0AA
:1038B000B2C401F0B3C402F0B4C403F0FF0E00269A
:1038C00001220222032200500401B16F0150B26FA5
:1038D0000250B36F0350B46FB593006A040180B314
:1038E000002A0050010BF46E05010851FE0BF41084
:1038F000086F040180B308D005011E6B1F6B206B9D
:10390000216B2281228502D005012295006A0501E2
:1039100008B1002A016A08B5012A0050011801E126
:1039200090D0006A050108B1002A0050010BE8445C
:10393000E844F46E0851FB0BF410086F16511A5D41
:10394000006E17511B59016E18511C59026E195106
:103950001D59036E00501A6F01501B6F02501C6FEF
:1039600003501D6F0401FC510501166F0401FD5148
:103970000501176F0401FE510501186F0401FF5185
:103980000501196F0401FC510026FD510122FE5171
:103990000222FF510322005005011A6F01501B6FD4
:1039A00002501C6F03501D6F006A040180B3002A8F
:1039B0000050010BE844F46E05010851FD0BF410B2
:1039C000086F006A08B1002A016A08B3012A015091
:1039D000D880E866D890016A01360150001A00507C
:1039E00019E01EC500F01FC501F020C502F021C579
:1039F00003F0002A04E3012A02E3024A032A0050EA
:103A000005011E6F01501F6F0250206F0350216F80
:103A1000228317D01EC500F01FC501F020C502F09B
:103A200021C503F0FF0E00260122022203220050CE
:103A300005011E6F01501F6F0250206F0350216F50
:103A40002293CF68EB0ECE6E9E90E4CF03F0E4CFCE
:103A500002F0E4CF01F0E4CF00F012004320706CDC
:103A60006179696E672025640A00430025630000C0
:103A7000800EE56E050EE56E950EE56E77EC35F081
:103A8000030EE126800EE56E050EE56E750EE56E01
:103A900077EC35F0030EE126800EE56E050EE56E3F
:103AA000970EE56E77EC35F0030EE126800EE56E9D
:103AB000050EE56E770EE56E77EC35F0030EE12628
:103AC000800EE56E050EE56E990EE56E77EC35F02D
:103AD000030EE126800EE56E050EE56E790EE56EAD
:103AE00077EC35F0030EE126800EE56E050EE56EEF
:103AF0009B0EE56E77EC35F0030EE126800EE56E49
:103B0000050EE56E7B0EE56E77EC35F0030EE126D3
:103B1000800EE56E050EE56E9D0EE56E77EC35F0D8
:103B2000030EE126800EE56E050EE56E7D0EE56E58
:103B300077EC35F0030EE126800EE56E050EE56E9E
:103B40009F0EE56E77EC35F0030EE126800EE56EF4
:103B5000050EE56E7F0EE56E77EC35F0030EE1267F
:103B6000800EE56E050EE56EA10EE56E77EC35F084
:103B7000030EE126800EE56E050EE56E810EE56E04
:103B800077EC35F0030EE126800EE56E050EE56E4E
:103B9000A30EE56E77EC35F0030EE126800EE56EA0
:103BA000050EE56E830EE56E77EC35F0030EE1262B
:103BB000800EE56E050EE56EA50EE56E77EC35F030
:103BC000030EE126800EE56E050EE56E850EE56EB0
:103BD00077EC35F0030EE126800EE56E050EE56EFE
:103BE000A70EE56E77EC35F0030EE126800EE56E4C
:103BF000050EE56E870EE56E77EC35F0030EE126D7
:103C0000800EE56E050EE56EA90EE56E77EC35F0DB
:103C1000030EE126800EE56E050EE56E890EE56E5B
:103C200077EC35F0030EE126800EE56E050EE56EAD
:103C3000AB0EE56E77EC35F0030EE126800EE56EF7
:103C4000050EE56E8B0EE56E77EC35F0030EE12682
:103C5000800EE56E050EE56EAD0EE56E77EC35F087
:103C6000030EE126800EE56E050EE56E8D0EE56E07
:103C700077EC35F0030EE126800EE56E050EE56E5D
:103C8000AF0EE56E77EC35F0030EE126800EE56EA3
:103C9000050EE56E8F0EE56E77EC35F0030EE1262E
:103CA000800EE56E050EE56EB10EE56E77EC35F033
:103CB000030EE126800EE56E050EE56E910EE56EB3
:103CC00077EC35F0030EE126800EE56E050EE56E0D
:103CD000B30EE56E77EC35F0030EE126800EE56E4F
:103CE000050EE56E930EE56E77EC35F0030EE126DA
:103CF0001200D9CFE5FFE1CFD9FF00C0E5FF01C039
:103D0000E5FF02C0E5FF03C0E5FF04C0E5FF05C015
:103D1000E5FF06C0E5FF07C0E5FF08C0E5FF020EAE
:103D2000DBCF00F0030EDBCF01F0040EDBCF02F09F
:103D3000036A046AF1EC3CF0056EFE0A01E075D0FE
:103D400025EC35F0F1EC3CF0066E040E065CD8B0C4
:103D50005AD0FA6AFB6A0634FA36E834FA36FC0BB3
:103D6000700FE56E3D0EFA22000EFB22E450F96E54
:103D7000C0EF1EF0CCEF1EF0DFEF1EF0F2EF1EF0F2
:103D800000C0E9FF01C0F3FF025066EC40F0076E8F
:103D900007C003F0046A37D00050010F076E000E11
:103DA0000120086E000E022007C0E9FF08C0F3FFE3
:103DB00066EC40F0076E07C003F0046A24D00050A0
:103DC000020F076E000E0120086E000E022007C0D1
:103DD000E9FF08C0F3FF66EC40F0076E07C003F090
:103DE000046A11D000500F0F076E000E0120086EFC
:103DF000000E022007C0E9FF08C0F3FFCBEC3FF044
:103E0000036EF3CF04F00450E56E0350E56EE56AEF
:103E10000650E56E000EE56E500EE56EA80EE56EDE
:103E2000CAEC38F0070EE1268DD0040E055CD8B040
:103E300089D0FA6AFB6A0534FA36E834FA36FC0BA4
:103E4000500FE56E3E0EFA22000EFB22E450F96E92
:103E500030EF1FF03DEF1FF068EF1FF07EEF1FF017
:103E6000F1EC3CF0036E03C0E5FF00C0E9FF01C0C8
:103E7000F3FF0250F8EC40F065D00050010F036EE4
:103E8000000E0120046E000E0220056EF1EC3CF0E5
:103E9000066E06C0E5FF03C0E9FF04C0F3FF05504E
:103EA000F8EC40F00650D8A44DD00050030F036E3C
:103EB000000E0120046E000E0220E56AF46AF66A24
:103EC000F76A03C0E9FF04C0F3FF55EC40F03AD0B5
:103ED0000050020F036E000E0120046E000E02203F
:103EE000056EF1EC3CF0066E06C0E5FF03C0E9FF8D
:103EF00004C0F3FF0550F8EC40F024D00F0E00266C
:103F0000000E01220222F1EC3CF0066E056AE56A21
:103F100006C0F4FF00C0E9FF01C0F3FF0250BFEC90
:103F200040F0F1EC3CF0046A05260450062205C07E
:103F3000E5FF06C0F4FF00C0E9FF01C0F3FF025037
:103F4000BFEC40F0E4CF08F0E4CF07F0E4CF06F098
:103F5000E4CF05F0E4CF04F0E4CF03F0E4CF02F0C7
:103F6000E4CF01F0E4CF00F0E4CFD9FF1200D9CFC5
:103F7000E5FFE1CFD9FF00C0E5FF01C0E5FF02C0CA
:103F8000E5FF03C0E5FF04C0E5FF05C0E5FF06C08F
:103F9000E5FF07C0E5FF020EDBCF00F0030EDBCF2D
:103FA00001F0040EDBCF02F0050EDBCF03F0060EAE
:103FB000DBCF04F0070EDBCF05F0080EDBCF06F0F9
:103FC000090EDBCF07F000500601636F0150646FEC
:103FD0000250656F0350666F04500601676F05500D
:103FE000686F0650696F07506A6F060163510601DA
:103FF0006903F4CF01F0F3CF00F0005006016D6FBC
:1040000001506E6F0601635106016703F4CF01F0A2
:10401000F3CF00F0005006016B6F01506C6F06018A
:10402000665106016703F3CF00F006016E510026CA
:1040300000506E6F0601655106016803F3CF01F071
:1040400001500026005006016E6F06016551060101
:104050006703F4CF01F0F3CF00F006016D510026A5
:104060006E51012200506D6F01506E6F0601645158
:1040700006016803F4CF03F0F3CF02F002500026EC
:1040800003500122005006016D6F01506E6F060152
:10409000645106016903F3CF00F000500601726F0E
:1040A0000601645106016703F4CF01F0F3CF00F07D
:1040B00000500601706F0150716F060163510601D7
:1040C0006A03F3CF00F000500601766F06016351DA
:1040D00006016803F4CF01F0F3CF00F000500601B1
:1040E000746F0150756F06016F6B0601736B0601EB
:1040F0006F5106016B25006E0601705106016C219F
:10410000016E0601715106016D21026E06017251A8
:1041100006016E21036E00506B6F01506C6F0250F0
:104120006D6F03506E6F0601735106016B25006EB3
:104130000601745106016C21016E060175510601DC
:104140006D21026E0601765106016E21036E03C0D9
:10415000E9FF02C0F4FF01C0F3FF0050E4CF07F015
:10416000E4CF06F0E4CF05F0E4CF04F0E4CF03F0B1
:10417000E4CF02F0E4CF01F0E4CF00F0E4CFD9FFC8
:10418000120000C0E5FF01C0E5FF04010A51D8B4E8
:10419000F7D0A3A81DD0A4A81BD006019B510601EF
:1041A000981905E1A3EC40F00601986BE9D0000EE8
:1041B00006019B25006E016A0F0E012200C0E9FF77
:1041C00001C0EAFFEFCF94F69B2B94C673FFD8D0C3
:1041D000A3AAD6D0A4AAD4D071A205D006019981F1
:1041E000A3EC40F0CDD071A405D006019983A3ECD7
:1041F00040F0C6D071A03ED074CF94F6800E04017A
:104200000B110601941904E1060199897196B8D041
:104210000601945104E0945104010B1927E10601B1
:10422000999971960601945103E00601999702D07D
:104230000601998794C69DF696C69EF606019605D8
:1042400006019F6F600E06019E25006E016A000E3A
:10425000012200C0E9FF01C0EAFF94C6EFFF9E2BD8
:104260009E51800A02E106019E6B8AD0060199994F
:10427000718686D074CF94F6060199A919D0800E64
:1042800004010B110601941911E1A39A7198929AF5
:104290000601985104E1736AA3EC40F007D000CF07
:1042A00073FF010E06019B6FA3886AD0718668D0E8
:1042B0000601945106019D2706019E5106019F1992
:1042C0001BE106019D510CE19EC696F6060199B7C9
:1042D00012D0A39A7198929A736AA3EC40F00BD013
:1042E0000601998599B707D0A39A7198929A010E01
:1042F000736EA3EC40F044D006019E51060197195D
:1043000008E1060197510601961903E0A3EC40F07D
:1043100037D096C600F0016A004A012AE56A800E8D
:10432000E56E0150E56E0050E56E22EC2FF0006E58
:10433000040EE12600500601956F06019E190CE15E
:104340001F0E0601941506019F6F9F2B9F2B0601E0
:10435000965106019F279F9F9EC600F006019E2B47
:10436000016A600E0026000E012200C0E9FF01C0B4
:10437000EAFF94C6EFFF9E51800A02E106019E6BA0
:10438000E4CF01F0E4CF00F0120000C0E5FF01C06F
:10439000E5FF02C0E5FF03C0E5FF04C0E5FF05C07F
:1043A000E5FF06C0E5FF07C0E5FF08C0E5FF09C05F
:1043B000E5FF0AC0E5FF006A016A040E015CD8B09F
:1043C000B3D0100E04012125026E036A060E0322EB
:1043D00002C0E9FF03C0EAFFEFCF02F00250FF0A7C
:1043E00001E19BD004012139E8441F0B026E890EC4
:1043F0000224036E046A060E042203C0E9FF04C00F
:10440000EAFFEFCF03F0070E2115046E010E056ED3
:10441000000E066E045006E0E86CD89005360636AD
:10442000010FFCE3076A05500316065007160350F8
:104430000710D880E866D890036A03360350D88006
:10444000E866D890036A0336076A870E0226060ECE
:10445000072202C0E9FF07C0EAFFEFCF08F008C05B
:1044600009F00A6A095005160A500616055006108A
:10447000D880E866D890056A05360550D880E86689
:10448000D890056A05360350051801E146D003505F
:1044900012E0010E056E045005E0E86CD890053678
:1044A000010FFDE30550081202C0E9FF07C0EAFF53
:1044B00008C0EFFF17D002C0E9FF07C0EAFFEFCF47
:1044C00005F0010E066E045005E0E86CD890063643
:1044D000010FFDE3061C051602C0E9FF07C0EAFF55
:1044E00005C0EFFF035003E1036A032A01D0036A0A
:1044F00021C404F0E56A0350E56EE56A0450E56EF8
:10450000000EE56E6D0EE56ED60EE56ECAEC38F067
:10451000070EE126012A01C000F00401212B100E34
:10452000215DD8A04AD7216B0050E4CF0AF0E4CF38
:1045300009F0E4CF08F0E4CF07F0E4CF06F0E4CFD1
:1045400005F0E4CF04F0E4CF03F0E4CF02F0E4CFD1
:1045500001F0E4CF00F0120000C0E5FF01C0E5FF6C
:1045600002C0E5FF03C0E5FF05C0E5FFF1EC3CF04C
:10457000006E010A22E00050020A24E000501D0AE9
:1045800026E000501E0A2CE00050280A01E13ED02F
:104590000050290A01E147D00050780A01E14AD0D1
:1045A0000050790A01E151D00050960A01E158D03B
:1045B0000050970A01E181D0AAD0F1EC3CF006014D
:1045C000906FA5D0F1EC3CF00401006FA0D0F1ECAD
:1045D0003CF006018F6F03EC41F077EC40F097D090
:1045E000F1EC3CF0036E026AF1EC3CF0016A022649
:1045F00001500322F1EC3CF0E56E0350E56E0250F1
:10460000E56E1BEC3DF0030EE12681D0F1EC3CF0B1
:10461000006EF1EC3CF0E56E0050E56EF1EC36F02A
:10462000E652E65274D0F1EC3CF0E56E86EC39F0DF
:10463000E6526DD0800EE56E040EE56E930EE56ECB
:10464000DDEC0CF0030EE12662D0800EE56E050E67
:10465000E56E000EE56EDDEC0CF0030EE12657D0A2
:10466000F1EC3CF0006A016EF1EC3CF0056A0024CC
:10467000026E05500120036E0250020BE840010B50
:10468000E838E844F46E0F015D51DF0BF4105D6F04
:104690000250010B010BE838F46E5D51EF0BF41082
:1046A0005D6FD8900330016E0230006ED8900132F9
:1046B000003200500F015E6F2AD0F1EC3CF0006A2E
:1046C000016EF1EC3CF0056A0024026E05500120F9
:1046D000036E0250020BE840010BE838E844F46E28
:1046E0000F015751DF0BF410576F0250010B010BF4
:1046F000E838F46E5751EF0BF410576FD89003322F
:104700000232D8900332023202500F01586FE4CFC8
:1047100005F0E4CF03F0E4CF02F0E4CF01F0E4CF02
:1047200000F01200D9CFE5FFE1CFD9FF00C0E5FFCF
:1047300001C0E5FF02C0E5FF03C0E5FF04C0E5FFDF
:1047400005C0E5FF06C0E5FF07C0E5FF08C0E5FFBF
:1047500009C0E5FF0AC0E5FF0BC0E5FF0CC0E5FF9F
:104760000DC0E5FF0EC0E5FF0FC0E5FF020EDBCF79
:1047700000F0030EDBCF01F0040EDBCF02F0050EDC
:10478000DBCF03F0060EDBCF04F0070EDBCF05F026
:10479000080EDBCF06F0200E076E086A06C009F08F
:1047A0000A6A0B6A0C6AE56AE56AE56A0950E56E11
:1047B0000350E56E0250E56E0150E56E0050E56E67
:1047C00027EC27F00D6E080EE126300E0D263A0E6E
:1047D0000D5C05E30D500E6E270E0E240D6EFF0EC0
:1047E00007260822D50E07240E6E050E08200F6E30
:1047F0000EC0E9FF0FC0EAFF0DC0EFFF0C50E56EE1
:104800000B50E56E0A50E56E0950E56E0350E56EFB
:104810000250E56E0150E56E0050E56E58EC28F050
:10482000006EF3CF01F0F4CF02F0E9CF03F0080EF1
:10483000E1260050011002100310D8A4AFD707C022
:1048400000F008C001F004C002F005C003F000C091
:1048500004F001C005F0004A012AD50E0426050E19
:10486000052204C0E9FF05C0EAFFEFCF04F002C053
:10487000E9FF03C0EAFF04C0EFFF024A032A000E6B
:10488000015C02E1200E005CE2E302C0E9FF03C02C
:10489000EAFF000EEF6AE4CF0FF0E4CF0EF0E4CFB2
:1048A0000DF0E4CF0CF0E4CF0BF0E4CF0AF0E4CF4E
:1048B00009F0E4CF08F0E4CF07F0E4CF06F0E4CF4E
:1048C00005F0E4CF04F0E4CF03F0E4CF02F0E4CF4E
:1048D00001F0E4CF00F0E4CFD9FF1200D9CFE5FF1B
:1048E000E1CFD9FF00C0E5FF01C0E5FF02C0E5FF51
:1048F00003C0E5FF04C0E5FF05C0E5FF06C0E5FF16
:1049000007C0E5FF08C0E5FF09C0E5FF0AC0E5FFF5
:104910000BC0E5FF0CC0E5FF0DC0E5FF020EDBCFCD
:1049200000F0030EDBCF01F0040EDBCF02F0050E2A
:10493000DBCF03F0060EDBCF04F0070EDBCF05F074
:10494000080EDBCF06F0090EDBCF07F0D88003AEF0
:10495000D890086A083608500FE0031C0C6E021C41
:104960000B6E011C0A6E001C096E092A0DE10A2A51
:104970000BE10B4A0C2A08D000C009F001C00AF074
:1049800002C00BF003C00CF0D88007AED890006ACC
:10499000003600500FE0071C0D6E061C036E051C50
:1049A000026E041C016E012A0DE1022A0BE1034A8A
:1049B0000D2A08D004C001F005C002F006C003F0C3
:1049C00007C00DF00D50E56E0350E56E0250E56E28
:1049D0000150E56E0C50E56E0B50E56E0A50E56E29
:1049E0000950E56E58EC28F0016EF3CF02F0F4CFD9
:1049F00003F0E9CF04F0080EE1260050081A085031
:104A000016E0041C076E031C066E021C056E011CDA
:104A1000006E002A04E1052A02E1064A072A07C0BF
:104A2000E9FF06C0F4FF05C0F3FF005007D004C043
:104A3000E9FF03C0F4FF02C0F3FF0150E4CF0DF023
:104A4000E4CF0CF0E4CF0BF0E4CF0AF0E4CF09F0B0
:104A5000E4CF08F0E4CF07F0E4CF06F0E4CF05F0B0
:104A6000E4CF04F0E4CF03F0E4CF02F0E4CF01F0B0
:104A7000E4CF00F0E4CFD9FF120000C0E5FF01C091
:104A8000E5FF02C0E5FF03C0E5FF04C0E5FF05C088
:104A9000E5FF06C0E5FF07C0E5FFACA28AD09EA8EF
:104AA00088D004012251FD0A0DE12351FF0A01E0E3
:104AB00009D039EC41F0AD6AFE0E0401226FFF0E01
:104AC000236977D004012251FE0A11E12351FF0A24
:104AD00001E00DD0C7EC3CF0F3CF01F006018B6F85
:104AE00001508C6FFF0E04012269236962D004011A
:104AF0002251FF0A30E12351FF0A01E02CD0C7EC1C
:104B00003CF0006EF3CF01F0F4CF02F0E9CF03F0F8
:104B10008BC604F08CC605F0E86A06018CBFFF0E58
:104B2000066E076E0450005E0550015A0650025A88
:104B30000750035A039E000E035C08E1000E025C5E
:104B400005E1000E015C02E1090E005C32E30401A4
:104B5000226B236B2ED004012251231108E13DEC7E
:104B600041F0AD6A010E0401226F236B22D022C4F2
:104B700000F023C401F00401223F01D0232B000EDA
:104B80000026020E012200C0E9FF01C0EAFFEFCFBC
:104B9000ADFF040122510DE12351010A01E009D0CA
:104BA000FD0E0401226FFF0E236906018D3F01D027
:104BB0008E2BE4CF07F0E4CF06F0E4CF05F0E4CF8E
:104BC00004F0E4CF03F0E4CF02F0E4CF01F0E4CF4F
:104BD00000F0120000C0E5FF01C0E5FF02C0E5FFE4
:104BE00003C0E5FF04C0E5FF05C0E5FF006A100E45
:104BF0000024016E026A060E022201C0E9FF02C013
:104C0000EAFFEFCF01F00150FF0A01E171D0013856
:104C10000F0B026E036A800E02260F0E032202C0E3
:104C2000E9FF03C0EAFFEFCF02F0070E0116010E05
:104C3000036E000E046E015006E0E86CD890033657
:104C40000436010FFCE3056A0250031605500416F2
:104C500003500410D880E866D890036A03360350E6
:104C600024E10038E8441F0B016E026A890E012618
:104C7000060E022201C0E9FF02C0EAFFEFCF03F0F7
:104C8000070E0014046E010E056E045005E0E86C7A
:104C9000D8900536010FFDE30550031201C0E9FF6E
:104CA00002C0EAFF03C0EFFF23D00038E8441F0B27
:104CB000016E026A890E0126060E022201C0E9FF7A
:104CC00002C0EAFFEFCF03F0070E0014046E010EDE
:104CD000056E045005E0E86CD8900536010FFDE341
:104CE000051C031601C0E9FF02C0EAFF03C0EFFF85
:104CF000002A100E005CD8A07AD7E4CF05F0E4CFEC
:104D000004F0E4CF03F0E4CF02F0E4CF01F0E4CF0D
:104D100000F01200D9CFE5FFE1CFD9FF00C0E5FFD9
:104D200001C0E5FF02C0E5FF03C0E5FF04C0E5FFE9
:104D300005C0E5FF06C0E5FF07C0E5FF020EDBCFBB
:104D400000F0030EDBCF01F0C7EC3CF0026EF3CFB6
:104D500003F0F4CF04F0E9CF05F0E56AE56A01500D
:104D6000E56E0050E56EE56A0F0EE56E420EE56EEB
:104D7000400EE56EB7EC1FF0006EF3CF01F0F4CFFC
:104D800006F0E9CF07F0080EE126E56AE56A030EB2
:104D9000E56EE80EE56E0750E56E0650E56E0150D3
:104DA000E56E0050E56E58EC28F0006EF3CF01F090
:104DB000F4CF06F0E9CF07F0080EE12600500224F8
:104DC000006E01500320016E06500420026E075051
:104DD0000520036EC7EC3CF0046EF3CF05F0F4CF72
:104DE00006F0E9CF07F00050045E0150055A02506A
:104DF000065A0350075A079E3F0E075C08E1FF0E54
:104E0000065C05E1FF0E055C02E1FF0E045CE2E2D8
:104E1000E4CF07F0E4CF06F0E4CF05F0E4CF04F0F0
:104E2000E4CF03F0E4CF02F0E4CF01F0E4CF00F0F0
:104E3000E4CFD9FF120043206B7434303320256453
:104E40002025642025642025642025640A00D9CF0C
:104E5000E5FFE1CFD9FF00C0E5FF01C0E5FF02C0DB
:104E6000E5FF03C0E5FF04C0E5FF05C0E5FF06C0A0
:104E7000E5FF07C0E5FF08C0E5FF09C0E5FF0AC080
:104E8000E5FF020EDBCF00F0030EDBCF01F0040ED6
:104E9000DBCF02F0050EDBCF03F0060EDBCF04F014
:104EA000070EDBCF05F0080EDBCF06F0090EDBCFD7
:104EB00007F0086A045005100610071005E1E968BC
:104EC000F468F368E86847D0096A0750800BE84443
:104ED0000A6E0A501BE104500426053606360736D2
:104EE0000750035C08E10650025C05E10550015CD7
:104EF00002E10450005C06E2D89007320632053227
:104F0000043204D0092A09C008F0DFD70750035C37
:104F100008E10650025C05E10550015C02E1045025
:104F2000005C08E30450005E0550015A0650025A26
:104F30000750035AD890073206320532043208C0AF
:104F400009F008060950E2E103C0E9FF02C0F4FFDE
:104F500001C0F3FF0050E4CF0AF0E4CF09F0E4CF42
:104F600008F0E4CF07F0E4CF06F0E4CF05F0E4CF9B
:104F700004F0E4CF03F0E4CF02F0E4CF01F0E4CF9B
:104F800000F0E4CFD9FF1200D9CFE5FFE1CFD9FF80
:104F900000C0E5FF01C0E5FF02C0E5FF03C0E5FF7B
:104FA00004C0E5FF05C0E5FF06C0E5FF07C0E5FF5B
:104FB000020EDBCF00F0030EDBCF01F0040EDBCFDF
:104FC00002F000500B0F036E000E0120046E000E65
:104FD0000220E56AF46AF66AF76A03C0E9FF04C0D2
:104FE000F3FF55EC40F00050070F036E000E012058
:104FF000046E000E0220056E0050030F066E000EB8
:105000000120076E000E0220E56AF46AF66AF76A6C
:1050100006C0E9FF07C0F3FF55EC40F0E56AF46A0B
:10502000F66AF76A03C0E9FF04C0F3FF055055ECC8
:1050300040F00050010F036E000E0120046E000EC0
:105040000220056E0050020F066E000E0120076E52
:10505000000E0220E56A06C0E9FF07C0F3FFF8EC86
:1050600040F0E56A03C0E9FF04C0F3FF0550F8EC27
:1050700040F0E56A00C0E9FF01C0F3FF0250F8EC20
:1050800040F0E4CF07F0E4CF06F0E4CF05F0E4CF42
:1050900004F0E4CF03F0E4CF02F0E4CF01F0E4CF7A
:1050A00000F0E4CFD9FF120025642025640A000037
:1050B000D9CFE5FFE1CFD9FF00C0E5FF01C0E5FF93
:1050C00002C0E5FF03C0E5FF04C0E5FF05C0E5FF42
:1050D00006C0E5FF07C0E5FF08C0E5FF09C0E5FF22
:1050E0000AC0E5FF0BC0E5FF0CC0E5FF0DC0E5FF02
:1050F000020EDBCF00F0030EDBCF01F0040EDBCF9E
:1051000002F0050EDBCF03F0060EDBCF04F0070E36
:10511000DBCF05F0080EDBCF06F0090EDBCF07F082
:10512000086A096A0A6A0B6A200E0C6E0350800B2B
:10513000E8440D6E00500026013602360336085052
:10514000082609360A360B360D50D8A408800750B9
:105150000B5C08E106500A5C05E10550095C02E1C0
:105160000450085C09E30450085E0550095A0650D3
:105170000A5A07500B5A00800C040D6E0DC00CF03B
:105180000D50D4E103C0E9FF02C0F4FF01C0F3FFFA
:105190000050E4CF0DF0E4CF0CF0E4CF0BF0E4CFFF
:1051A0000AF0E4CF09F0E4CF08F0E4CF07F0E4CF51
:1051B00006F0E4CF05F0E4CF04F0E4CF03F0E4CF51
:1051C00002F0E4CF01F0E4CF00F0E4CFD9FF120009
:1051D00000C0E5FF01C0E5FF03C0E5FF04C0E5FF37
:1051E00005C0E5FF06C0E5FF07C0E5FF08C0E5FF15
:1051F00009C0E5FF0AC0E5FF0BC0E5FF90C400F061
:1052000091C401F00401903F01D0912B0050E56E54
:1052100095EC40F0E652076E046A056A066A90C48F
:1052200000F091C401F00401903F01D0912B005097
:10523000E56E95EC40F0E6520B6A0A6E086A08507B
:10524000041205120A5006120B50071290C400F007
:1052500091C401F00401903F01D0912B0050E56E04
:1052600095EC40F0E652036E006A03C001F0E86A74
:1052700003BEFF0E086E096E0050041201500512A5
:10528000085006120950071290C400F091C401F0B2
:105290000401903F01D0912B0050E56E95EC40F059
:1052A000E652016A0412015005120612071207C0E5
:1052B000E9FF06C0F4FF05C0F3FF0450E4CF0BF094
:1052C000E4CF0AF0E4CF09F0E4CF08F0E4CF07F030
:1052D000E4CF06F0E4CF05F0E4CF04F0E4CF03F030
:1052E000E4CF01F0E4CF00F0120000C0E5FF01C000
:1052F000E5FF02C0E5FF03C0E5FF04C0E5FF0601CE
:1053000097510601961901E15FD097C600F0002A77
:10531000009E600E0024016E026A000E022201C08F
:10532000E9FF02C0EAFFEFCFA1F61F0E0601A117A9
:1053300097C6A0F6A1510601A027A02BA02BA09FE5
:10534000F1EC3CF0016E015003E1016A012A01D049
:10535000016AF1EC3CF00601A16F800EA115026E0E
:105360001F0EA115036E03C004F003C0A1F6045084
:1053700003E196C697F63BD001501BE0025022E0B5
:10538000F1EC3CF0006E0601A1070050420A1AE061
:1053900000504E0A03E106EC38F014D00050460AE3
:1053A00003E1E2EC40F00ED00050490A0BE1FF00AF
:1053B00009D097C6A2F6025003E028EC34F002D0E0
:1053C000ACEC22F0A0C697F60401075104010819BD
:1053D00006E00601985103E1A5EC2BF008D092BA43
:1053E00006D00601985103E172B2A3EC40F0E4CF7D
:1053F00004F0E4CF03F0E4CF02F0E4CF01F0E4CF17
:1054000000F01200D9CFE5FFE1CFD9FF00C0E5FFE2
:1054100001C0E5FF02C0E5FF03C0E5FF04C0E5FFF2
:1054200005C0E5FF06C0E5FF07C0E5FF08C0E5FFD2
:105430000BC0E5FF0CC0E5FF0DC0E5FF020EDBCFA2
:1054400000F0030EDBCF01F0040EDBCF02F0050EFF
:10545000DBCF03F0060EDBCF04F003C0E5FF04C092
:10546000F4FF00C0E9FF01C0F3FF0250BFEC40F0C1
:105470000050020F056E000E0120066E000E022085
:10548000076EE86A04BEFF0E086E04500C6E0C2610
:1054900008340D6ED8900C360D360344E844FC0BEE
:1054A0000B6E0350E844E844030B0C12E56A0BC092
:1054B000F4FF0CC0F6FF0DC0F7FF05C0E9FF06C002
:1054C000F3FF075055EC40F0080E0026000E0122B5
:1054D0000222E56AF46AF66AF76A00C0E9FF01C0D1
:1054E000F3FF025055EC40F0E4CF0DF0E4CF0CF0A8
:1054F000E4CF0BF0E4CF08F0E4CF07F0E4CF06F000
:10550000E4CF05F0E4CF04F0E4CF03F0E4CF02F001
:10551000E4CF01F0E4CF00F0E4CFD9FF1200D9CFFF
:10552000E5FFE1CFD9FF00C0E5FF01C0E5FF02C004
:10553000E5FF03C0E5FF04C0E5FF05C0E5FF06C0C9
:10554000E5FF07C0E5FF020EDBCF00F0030EDBCF67
:1055500001F0040EDBCF02F0050EDBCF03F002C03A
:1055600006F00650046E800A33E100C0E9FF01C076
:10557000F3FF02500CEC3FF0056EF3CF06F0F4CFD2
:1055800007F003C0E5FF05C0E9FF06C0F3FF0750C1
:10559000F8EC40F000C0E9FF01C0F3FF02500CEC52
:1055A0003FF0056EF3CF06F0F4CF07F0052A02E3D3
:1055B000064A072A05C0E5FF06C0F4FF07C0F6FF4C
:1055C00000C0E9FF01C0F3FF025086EC40F020D09C
:1055D00004C000F000AA1CD0007A0050046E04E160
:1055E000035041EC41F014D00450010A04E103508F
:1055F00002EC00F00DD004500F0A04E10350B6ECA9
:105600003BF006D004500E0A03E103505AEC41F07F
:10561000E4CF07F0E4CF06F0E4CF05F0E4CF04F0E8
:10562000E4CF03F0E4CF02F0E4CF01F0E4CF00F0E8
:10563000E4CFD9FF1200D9CFE5FFE1CFD9FF00C0F9
:10564000E5FF01C0E5FF02C0E5FF03C0E5FF04C0C0
:10565000E5FF05C0E5FF06C0E5FF07C0E5FF08C0A0
:10566000E5FF09C0E5FF0AC0E5FF020EDBCF00F051
:10567000030EDBCF01F0040EDBCF02F0050EDBCF13
:1056800003F0060EDBCF04F0070EDBCF05F0003889
:10569000E8441F0B066E076A850E0626060E0722D3
:1056A00006C0E9FF07C0EAFFEFCF08F0070E0014BD
:1056B000096E010E0A6E095005E0E86CD8900A36B2
:1056C000010FFDE30A50081206C0E9FF07C0EAFF18
:1056D00008C0EFFF000E0024066E076A060E0722C0
:1056E00006C0E9FF07C0EAFF01C0EFFF016AE80E4C
:1056F0000026040E0122800E025E070E02160238FA
:10570000F00B036E070E05160550032600C0E9FFD7
:1057100001C0EAFF03C0EFFFE4CF0AF0E4CF09F0D5
:10572000E4CF08F0E4CF07F0E4CF06F0E4CF05F0D3
:10573000E4CF04F0E4CF03F0E4CF02F0E4CF01F0D3
:10574000E4CF00F0E4CFD9FF120000C0E5FF01C0B4
:10575000E5FF02C0E5FF03C0E5FF72A276D095EC3D
:105760003EF0006E005005E10401086B0401076B78
:105770006CD008C401F00050012695EC3EF0026E9A
:1057800000060250230A1FE1010E005CD8A05BD086
:1057900095EC3EF0026E690A03E1E7EC3BF053D072
:1057A0000250720A03E1A3EC40F04DD00250730A9C
:1057B00001E049D0928A7186A38AA39874507450EC
:1057C0007198718840D00250430A05E00250420AA5
:1057D00001E039D001D0008E00C09AF600500F01D0
:1057E000006F010E06019B6F04010851011814E0BF
:1057F00095EC3EF0026E06019A27000E06019B25ED
:10580000006E036A0F0E032200C0E9FF03C0EAFF27
:1058100002C0EFFF9B2BE8D7000E06019B25006E10
:10582000026A0F0E022206019A1D036E032A00C0AF
:10583000E9FF02C0EAFF03C0EFFF06019B2B9BC6F6
:1058400098F60601926B01C008F4E4CF03F0E4CFB0
:1058500002F0E4CF01F0E4CF00F01200D9CFE5FF71
:10586000E1CFD9FF00C0E5FF01C0E5FF02C0E5FFC1
:1058700003C0E5FF04C0E5FF05C0E5FF06C0E5FF86
:10588000020EDBCF00F0030EDBCF01F0040EDBCF06
:1058900002F0050EDBCF03F003C004F0056A0350ED
:1058A000D8B44FD000C0E9FF01C0F3FF025066EC4E
:1058B00040F0066E430A03E1010E056E038E0406F6
:1058C000002A02E3014A022AA39A7198929AA398A5
:1058D000A4A8FED77280736A0000A4A8FED77290B5
:1058E00003C073FF0000A4A8FED7055004E0420ED9
:1058F000736E032604D0620E736E620E032604508C
:1059000015E00000A4A8FED700C0E9FF01C0F3FF26
:10591000025066EC40F0056E05C073FF055003268B
:105920000406002A02E3014A022AE9D70000A4A8DB
:10593000FED7031C736E732A0000A4A8FED7A3EC45
:1059400040F0E4CF06F0E4CF05F0E4CF04F0E4CF7C
:1059500003F0E4CF02F0E4CF01F0E4CF00F0E4CFB5
:10596000D9FF120000C0E5FF01C0E5FF02C0E5FF5E
:1059700003C0E5FF04C0E5FF006A850E0024016E48
:10598000026A060E022201C0E9FF02C0EAFFEF6AC6
:10599000002A020E005CF1E3006A0050020DF45090
:1059A000026EF3CF01F0E00E0124036E000E022020
:1059B000046E03C0E9FF04C0EAFFEE6AEF6A5C0E02
:1059C0000124036E040E0220046E03C0E9FF04C02C
:1059D000EAFFEE6AEF6A550E0124036E050E0220FF
:1059E000046E03C0E9FF04C0EAFFEE6AEF6A750EB9
:1059F0000124036E050E0220046E03C0E9FF04C0FB
:105A0000EAFFEE6AEF6A950E0126050E022201C03A
:105A1000E9FF02C0EAFFEE687F0EEF6EE80E002499
:105A2000016E026A040E022201C0E9FF02C0EAFF11
:105A3000EF68002A100E005CD8A0AFD7AF0EC06E82
:105A4000C16A010EC26EC282E4CF04F0E4CF03F05B
:105A5000E4CF02F0E4CF01F0E4CF00F012004320E5
:105A6000412025642025640A0000D9CFE5FFE1CF5D
:105A7000D9FF00C0E5FF01C0E5FF02C0E5FF03C09C
:105A8000E5FF04C0E5FF05C0E5FF06C0E5FF07C070
:105A9000E5FF08C0E5FF09C0E5FF0AC0E5FF0BC050
:105AA000E5FF0CC0E5FF020EDBCF00F0030EDBCFFD
:105AB00001F0040EDBCF02F0050EDBCF03F0060E83
:105AC000DBCF04F0070EDBCF05F0080EDBCF06F0CE
:105AD000090EDBCF07F002500A6E0150096E00502C
