:020000040000FA
:10000000FBEF3AF0C96E1200DAEF30F068EC18F04E
:1000100043EC16F0FDD71200EDEF35F0D9CFE5FF38
:10002000E1CFD9FF00C0E5FF01C0E5FF02C0E5FF59
:1000300003C0E5FF04C0E5FF05C0E5FF06C0E5FF1E
:1000400007C0E5FF08C0E5FF09C0E5FF0AC0E5FFFE
:100050000BC0E5FF0CC0E5FF0DC0E5FF0EC0E5FFDE
:100060000FC0E5FF10C0E5FF11C0E5FF12C0E5FFBE
:1000700013C0E5FF14C0E5FF15C0E5FF16C0E5FF9E
:1000800017C0E5FF18C0E5FF19C0E5FF1AC0E5FF7E
:100090001BC0E5FF1CC0E5FF1DC0E5FF1EC0E5FF5E
:1000A0001FC0E5FF20C0E5FF21C0E5FF22C0E5FF3E
:1000B00023C0E5FF24C0E5FF25C0E5FF26C0E5FF1E
:1000C00027C0E5FF020EDBCF00F0030EDBCF01F00F
:1000D000040EDBCF02F00250086E0150076E005094
:1000E000066EE56A100EE56E0850E56E0750E56E87
:1000F0000650E56E800EE56E0F0EE56E230EE56E82
:1001000000EC2DF0080EE1262BCF03F02CCF04F0ED
:100110002DCF05F02ECF06F003C007F004C008F085
:1001200005C009F006C00AF0D8800AAED8900AE3EC
:100130000A1E091E081E076C05E1082A03E1092AA8
:10014000D8B40A2A23CF0BF024CF0CF0E86A0F01B1
:1001500024BFFF0E0D6E0E6ED8902731106E263123
:100160000F6ED89010320F322851E840E840C00B93
:1001700010122841E8403F0BE8BAC009116E126A1C
:1001800011BE12680F500B5C0F6E10500C58106EA1
:1001900011500D58116E12500E58126ED89012AEAA
:1001A000D880D8A04ED01250800F800F08E1000EEA
:1001B000115C05E1000E105C02E1010E0F5CD8B08D
:1001C00040D00A340A30166E0930156E0830146EAD
:1001D0000730136E31CF17F032CF18F0E86A0F01F5
:1001E00032BFFF0E196E800FF36E1650800FF35C56
:1001F00008E11550195C05E11450185C02E1135038
:10020000175C1FE30C50156E15260D34166ED89032
:10021000153616360B44E844FC0B146E0B50E844BC
:10022000E844030B15120F01256B1450266F15506F
:10023000276F1650286F2B6B2C6B2D6B2E6BEBEFF3
:1002400004F0D89009300C6E08300B6ED8900C3248
:100250000B32D8900C320B320A50E838E844E00BED
:100260000C120A38E8441F0BE8B8E0090E6A08507F
:10027000076E0950086ED89008320732D8900832BD
:1002800007320A50E840E840C00B08120A40E84034
:100290003F0B0BC009F00CC00AF0E86A0CBEFF0E61
:1002A0000D6E0E6E07C013F008C014F0E86A08BEA9
:1002B000FF0E156EE56E1550E56E1450E56E135089
:1002C000E56E0E50E56E0D50E56E0A50E56E095074
:1002D000E56E3DEC22F0096EF3CF0AF0F4CF0DF09D
:1002E000E9CF0EF0080EE12631CF13F032CF14F033
:1002F000E86A0F0132BFFF0E156E166EE56E1550DF
:10030000E56E1450E56E1350E56E0E50E56E0D501F
:10031000E56E0A50E56E0950E56E23EC24F0096E97
:10032000F3CF0AF0080EE12629CF0DF02ACF0EF008
:10033000E86A0F012ABFFF0E176E0E501B6E1B26B8
:1003400017341C6ED8901B361C360D44E844FC0B49
:100350001A6E0D50E844E844030B1B12196AD8804A
:1003600006AED890D8B07AD109C00DF00AC00EF010
:10037000E86A0ABEFF0E176E800FF36E1250800FF0
:10038000F35C08E11150175C05E110500E5C02E1CE
:100390000F500D5CD8B03AD10650800FF36E1C5050
:1003A000800FF35C08E11B50055C05E11A50045C0A
:1003B00002E11950035CD8B002D12FCF0DF030CF3D
:1003C0000EF0E86A0F0130BFFF0E176E186E035073
:1003D0000D2604500E2205501722065018220D50EB
:1003E0000F012B6F0E502C6F17502D6F18502E6F62
:1003F00031CF0DF032CF0EF02FCF17F030CF18F0F5
:100400000E50800FF36E1850800FF35C02E117500E
:100410000D5CD8B0B8D02BCF1DF02CCF1EF02DCF57
:100420001FF02ECF20F0D8901F30226E1E30216E8C
:10043000D89022322132D890223221322050E8380E
:10044000E844E00B22122038E8441F0BE8B8E0092A
:10045000246A21500B6E22500C6ED8901F30226EF1
:100460001E30216ED890223221322050E840E840E0
:10047000C00B22122040E8403F0B2150076E225053
:10048000086E0BC021F00CC022F0E86A0CBEFF0E13
:10049000236E246E07C025F008C026F0E86A08BE67
:1004A000FF0E276EE56E2750E56E2650E56E25504F
:1004B000E56E2450E56E2350E56E2250E56E215026
:1004C000E56E3DEC22F0216EF3CF22F0F4CF23F065
:1004D000E9CF24F0080EE1260DC025F00EC026F06D
:1004E000E86A0EBEFF0E276EE56E2750E56E2650B9
:1004F000E56E2550E56E2450E56E2350E56E2250E2
:10050000E56E2150E56E23EC24F0216EF3CF22F04E
:10051000080EE1262150096E22500A6E09C021F012
:100520000AC022F0E86A0ABEFF0E236E246E125043
:10053000800FF36E2450800FF35C08E12350115CB0
:1005400005E12250105C02E121500F5C1CE20D50CD
:10055000175C0D6E0E5018580E6EE86A0EBEFF0E38
:10056000176E186E0D501D5E0E501E5A17501F5AF2
:100570001850205A1D500F012B6F1E502C6F1F500A
:100580002D6F20502E6F1C50800FF36E0F012E51D7
:10059000800FF35C08E12D511B5C05E12C511A5CC6
:1005A00002E12B51195CD8B0EFD119500F012B6F1C
:1005B0001A502C6F1B502D6F1C502E6FE5D11C5004
:1005C000800FF36E0650800FF35C08E105501B5C52
:1005D00005E104501A5C02E10350195CD8B0D4D193
:1005E0001350035C0D6E145004580E6E15500558D0
:1005F000176E16500658186E0D500F012B6F0E50C7
:100600002C6F17502D6F18502E6FBED12FCF0DF0BD
:1006100030CF0EF0E86A0F0130BFFF0E176E186E74
:1006200013500D2614500E22155017221650182262
:100630000D50035C0D6E0E5004580E6E1750055889
:10064000176E18500658186E0D500F012B6F0E5074
:100650002C6F17502D6F18502E6F96D10A1E096CF3
:10066000D8B40A2A09C00DF00AC00EF0E86A0ABE22
:10067000FF0E176E186E1250800FF36E1850800F19
:10068000F35C08E11750115C05E10E50105C02E1CB
:100690000D500F5CD8B055D11C1C186E1B1C176E6A
:1006A0001A1C0E6E191C0D6E0D2A04E10E2A02E1B1
:1006B000174A182A1850800FF36E0650800FF35C0B
:1006C00008E10550175C05E104500E5C02E103509F
:1006D0000D5CD8B00FD12FCF19F030CF1AF0E86AE7
:1006E0000F0130BFFF0E1B6E1C6E1950035C196E9C
:1006F0001A5004581A6E1B5005581B6E1C50065891
:100700001C6E19500F012B6F1A502C6F1B502D6F40
:100710001C502E6F31CF19F032CF1AF02FCF1BF0B3
:1007200030CF1CF01A50800FF36E1C50800FF35C1A
:1007300002E11B50195CD8B0C1D02BCF1DF02CCFDB
:100740001EF02DCF1FF02ECF20F0D8901F30226E3C
:100750001E30216ED89022322132D890223221329E
:100760002050E838E844E00B22122038E8441F0B00
:10077000E8B8E009236E246A23BE2468241E231EE1
:10078000221E216C05E1222A03E1232AD8B4242A5F
:1007900021500B6E22500C6ED8901F30226E1E30EE
:1007A000216ED890223221322050E840E840C00B20
:1007B00022122040E8403F0B221E216C02E1222A37
:1007C00000E12150076E2250086EE86A0CBEFF0E51
:1007D000216E226EE86A08BEFF0E236EE56E23507E
:1007E000E56E0850E56E0750E56E2250E56E21502B
:1007F000E56E0C50E56E0B50E56E3DEC22F0076E99
:10080000F3CF08F0F4CF0BF0E9CF0CF0080EE1269F
:1008100019C021F01AC022F0E86A1ABEFF0E236E3A
:10082000E56E2350E56E2250E56E2150E56E0C50CA
:10083000E56E0B50E56E0850E56E0750E56E23EC53
:1008400024F0076EF3CF08F0080EE126081E076CAF
:1008500002E1082A00E10750096E08500A6EE86AB2
:100860000ABEFF0E076E800FF36E1250800FF35C0E
:1008700008E11150075C05E110500A5C02E10F50DD
:10088000095C1CE219501B5C196E1A501C581A6E38
:10089000E86A1ABEFF0E076E086E19501D261A5020
:1008A0001E2207501F22085020221D500F012B6FBF
:1008B0001E502C6F1F502D6F20502E6F0F012E5188
:1008C000800FF36E1850800FF35C08E117502D5D18
:1008D00005E10E502C5D02E10D502B5DD8B054D0D7
:1008E0000D500F012B6F0E502C6F17502D6F18509D
:1008F0002E6F4AD00650800FF36E1850800FF35CB5
:1009000008E11750055C05E10E50045C02E10D5052
:10091000035CD8B039D013500324076E1450042060
:10092000086E15500520096E165006200A6E0750F5
:100930000F012B6F08502C6F09502D6F0A502E6F2E
:1009400023D02FCF07F030CF08F0E86A0F0130BF77
:10095000FF0E096E0A6E0750132608501422095024
:1009600015220A5016221350032614500422155043
:1009700005221650062203500F012B6F04502C6FD6
:1009800005502D6F06502E6FD8900F012D31046E3B
:100990002C31036ED890043203322E51E840E840E7
:1009A000C00B04122E41E8403F0BE8BAC009056EA7
:1009B000066A05BE066825510326265104222751E2
:1009C0000522285106220350256F0450266F05503A
:1009D000276F0650286FE56A100EE56E800EE56EF3
:1009E0000F0EE56E230EE56E0250E56E0150E56ECA
:1009F0000050E56E00EC2DF0080EE126E4CF27F064
:100A0000E4CF26F0E4CF25F0E4CF24F0E4CF23F0C8
:100A1000E4CF22F0E4CF21F0E4CF20F0E4CF1FF0C8
:100A2000E4CF1EF0E4CF1DF0E4CF1CF0E4CF1BF0C8
:100A3000E4CF1AF0E4CF19F0E4CF18F0E4CF17F0C8
:100A4000E4CF16F0E4CF15F0E4CF14F0E4CF13F0C8
:100A5000E4CF12F0E4CF11F0E4CF10F0E4CF0FF0C8
:100A6000E4CF0EF0E4CF0DF0E4CF0CF0E4CF0BF0C8
:100A7000E4CF0AF0E4CF09F0E4CF08F0E4CF07F0C8
:100A8000E4CF06F0E4CF05F0E4CF04F0E4CF03F0C8
:100A9000E4CF02F0E4CF01F0E4CF00F0E4CFD9FFDF
:100AA0001200D9CFE5FFE1CFD9FF00C0E5FF01C0BB
:100AB000E5FF02C0E5FF03C0E5FF04C0E5FF05C098
:100AC000E5FF06C0E5FF07C0E5FF08C0E5FF09C078
:100AD000E5FF0AC0E5FF0BC0E5FF0CC0E5FF0DC058
:100AE000E5FF0EC0E5FF0FC0E5FF10C0E5FF11C038
:100AF000E5FF12C0E5FF13C0E5FF14C0E5FF15C018
:100B0000E5FF16C0E5FF17C0E5FF18C0E5FF19C0F7
:100B1000E5FF1AC0E5FF1BC0E5FF1CC0E5FF1DC0D7
:100B2000E5FF1EC0E5FF020EDBCF00F0030EDBCFBA
:100B300001F0040EDBCF02F0050EDBCF03F0060E52
:100B4000DBCF04F0070EDBCF05F0080EDBCF06F09D
:100B5000090EDBCF07F00A0EDBCF08F0096A0A6A3C
:100B600002C00DF00D50800A0DE102500501706FBA
:100B700001506F6F00506E6F050E016E6E0E006EAD
:100B8000800E026E03C0E9FF04C0F3FF055056EC6F
:100B90003BF00B6E0B50D8B407EF09F00B50250A51
:100BA00002E0EEEF08F00C6A0D6A0E6A0F6A106A36
:100BB0000A0E116E126A136A146A200E156E1668F8
:100BC000176A2B0E186E032A02E3044A052A03C093
:100BD000E9FF04C0F3FF055056EC3BF0196E250AFF
:100BE00013E11950E56E0250E56E0150E56E0050BC
:100BF000E56E6EEC2BF0040EE126094A0A2A032A60
:100C000002E3044A052ABED71950300A06E1300E25
:100C1000156E032A02E3044A052A03C0E9FF04C053
:100C2000F3FF055056EC3BF02D0A06E1010E146E61
:100C3000032A02E3044A052A03C0E9FF04C0F3FFC4
:100C4000055056EC3BF0200A08E1010E176E200E0D
:100C5000186E032A02E3044A052A03C0E9FF04C010
:100C6000F3FF055056EC3BF02B0A06E1010E176E20
:100C7000032A02E3044A052A03C0E9FF04C0F3FF84
:100C8000055056EC3BF0196E310E195C2BE33A0E11
:100C9000195C28E203C019F004C01AF005C01BF06B
:100CA00019C0E9FF1AC0F3FF1B5056EC3BF01C6E55
:100CB000300E1C5C11E33A0E1C5C0EE213500A0D60
:100CC000F3CF1DF01C501D26D00E1D24136E192AC3
:100CD00002E31A4A1B2AE4D719C003F01AC004F031
:100CE0001BC005F003C0E9FF04C0F3FF055056EC3C
:100CF0003BF02E0A2DE1032A02E3044A052A166A74
:100D000003C019F004C01AF005C01BF019C0E9FFB8
:100D10001AC0F3FF1B5056EC3BF01C6E300E1C5CEF
:100D200011E33A0E1C5C0EE216500A0DF3CF1DF0D3
:100D30001C501D26D00E1D24166E192A02E31A4AD5
:100D40001B2AE4D719C003F01AC004F01BC005F039
:100D500003C0E9FF04C0F3FF055056EC3BF0196EE9
:100D60006C0A07E1010E0C6E032A02E3044A052A0D
:100D700009D01950680A06E1010E0E6E032A02E33B
:100D8000044A052A03C0E9FF04C0F3FF055056ECEE
:100D90003BF0750A06E1010E106E032A02E3044AD5
:100DA000052A03C0E9FF04C0F3FF055056EC3BF0F1
:100DB000196E730A05E1010E0D6E200E156E3FD0FF
:100DC0001950780A03E1100E116E39D01950580AE3
:100DD00005E1100E116E010E126E31D01950630A2A
:100DE00002E1116A2CD019506F0A03E1080E116E4E
:100DF00026D01950660A03E1010E0F6E20D019505B
:100E0000640A1DE01950690A1AE0105005E0FF0E4F
:100E100003260422052213D01950E56E0250E56E18
:100E20000150E56E0050E56E6EEC2BF0040EE126ED
:100E3000094A0A2A032A02E3044A052AA3D60D50C6
:100E400021E00650030F0D6E000E0720196E000EF4
:100E500008201A6E0DC006F019C007F01AC008F07D
:100E6000FD0E0D26FF0E19221A220DC0E9FF19C032
:100E7000F3FF1A5010EC3AF00D6EF3CF19F0F4CFE7
:100E80001AF0FDD00F500DE0000E1A6E120E196E02
:100E9000960E0D6E040E0626000E07220822166816
:100EA000EED016680C5023E00650040F0C6E000EB6
:100EB00007200F6E000E08201B6E0CC006F00FC03E
:100EC00007F01BC008F0FC0E0C26FF0E0F221B22A1
:100ED0000CC0E9FF0FC0F3FF1B5079EC39F00C6E2A
:100EE000F3CF0FF0F4CF1BF0E9CF1CF067D00E501A
:100EF0002FE00650020F0E6E000E07201D6E000E32
:100F000008201E6E0EC006F01DC007F01EC008F0BF
:100F1000FE0E0E26FF0E1D221E220EC0E9FF1DC072
:100F2000F3FF1E50CFEC3AF00E6E0EC00CF00F6ABD
:100F30001B6A1C6A11500A0A03E11050D8B43ED053
:100F40000C500E6E0EC00CF00F6A1B6A1C6A36D075
:100F50000650020F0E6E000E07201D6E000E0820B8
:100F60001E6E0EC006F01DC007F01EC008F0FE0E7B
:100F70000E26FF0E1D221E220EC0E9FF1DC0F3FF2C
:100F80001E50CFEC3AF00E6EF3CF1DF00EC00CF0F9
:100F90001DC00FF0E86A1DBEFF0E1B6E1C6E1150C7
:100FA0000A0A02E110500AE00C500E6E0F501D6E3E
:100FB0000EC00CF01DC00FF01B6A1C6A050E196EE6
:100FC0003B0E0D6E800E1A6E1150D8B440D01050EA
:100FD00013E01150E56E050EE56E3B0EE56E1C50FC
:100FE000E56E1B50E56E0F50E56E0C50E56E47EC5C
:100FF00023F0070EE12612D01150E56E050EE56EC6
:101000003B0EE56E1C50E56E1B50E56E0F50E56E15
:101010000C50E56E77EC30F0070EE12617502FE00C
:101020000DC0E9FF19C0F3FF1A5056EC3BF02D0A32
:1010300026E0FF0E0D2619221A2218C0E5FF0DC06A
:10104000E9FF19C0F3FF1A50CEEC3BF018D00CC0EA
:10105000E5FF0DC0E9FF19C0F3FF1A50CEEC3BF0DD
:101060000D50010F0C6E000E19200E6E000E1A208E
:10107000E56A0CC0E9FF0EC0F3FFCEEC3BF00DC0FB
:101080000CF019C00EF01AC00FF013C010F0105081
:1010900010E00CC0E9FF0EC0F3FF0F5056EC3BF020
:1010A000176E175006E00C2A02E30E4A0F2A1006AC
:1010B000EED710C013F014501EE109C00CF00AC0A6
:1010C0000EF010C00FF00F5010E01550E56E0250FA
:1010D000E56E0150E56E0050E56E6EEC2BF0040EEF
:1010E000E1260C4A0E2A0F06EED70CC009F00EC0FE
:1010F0000AF00FC013F016C00CF00DC00DF019C0AF
:101100000EF01AC00FF009C010F00AC015F00DC0A3
:10111000E9FF0EC0F3FF0F5056EC3BF0166E165071
:10112000D8B43ED00CC016F0176A161E171E165003
:10113000171005E00CC016F00C06165031E00DC07B
:10114000E9FF0EC0F3FF0F5056EC3BF0116E12504A
:1011500010E01150E56E8CEC3AF0166EE652165027
:1011600004E0DF0E1114166E02D011C016F016C086
:1011700011F01150E56E0250E56E0150E56E005021
:10118000E56E6EEC2BF0040EE1260D2A02E30E4A0A
:101190000F2A104A152A1350D8B4B9D71306B7D757
:1011A00010C009F015C00AF014502BE010C00CF06C
:1011B00015C00DF013C00EF00E501FE0200EE56EAE
:1011C0000250E56E0150E56E0050E56E6EEC2BF0BE
:1011D000040EE1260C4A0D2A0E06EED70B50E56EE2
:1011E0000250E56E0150E56E0050E56E6EEC2BF09E
:1011F000040EE126094A0A2A04D00CC009F00DC0E9
:101200000AF0032A02E3044A052AC2EF05F00AC0E5
:10121000F3FF0950E4CF1EF0E4CF1DF0E4CF1CF043
:10122000E4CF1BF0E4CF1AF0E4CF19F0E4CF18F0CC
:10123000E4CF17F0E4CF16F0E4CF15F0E4CF14F0CC
:10124000E4CF13F0E4CF12F0E4CF11F0E4CF10F0CC
:10125000E4CF0FF0E4CF0EF0E4CF0DF0E4CF0CF0CC
:10126000E4CF0BF0E4CF0AF0E4CF09F0E4CF08F0CC
:10127000E4CF07F0E4CF06F0E4CF05F0E4CF04F0CC
:10128000E4CF03F0E4CF02F0E4CF01F0E4CF00F0CC
:10129000E4CFD9FF12003C4E4F20464C4F41543E04
:1012A0000000D9CFE5FFE1CFD9FF00C0E5FF01C0C5
:1012B000E5FF02C0E5FF03C0E5FF04C0E5FF05C090
:1012C000E5FF06C0E5FF07C0E5FF08C0E5FF09C070
:1012D000E5FF0AC0E5FF0BC0E5FF0CC0E5FF0DC050
:1012E000E5FF020EDBCF00F0030EDBCF01F0040EB2
:1012F000DBCF02F00050090F066E000E0120076ED2
:10130000000E0220086E0B6E07500A6E0650096E22
:10131000E56A0D0EE56E0B50E56E0A50E56E09505C
:10132000E56E800EE56E050EE56E200EE56E00ECB6
:101330002DF0080EE12600C009F001C00AF002C03D
:101340000BF0E56AE56E0B50E56E0A50E56E09504C
:10135000E56E800EE56E040EE56E810EE56E00EC26
:101360002DF0080EE12681C403F00350010A04E0C9
:101370000350030A01E018D105013551036E3651BF
:10138000046E05012851056E2951096E0550035C54
:101390000501756F09500458766F05013551050137
:1013A000286F050136510501296F050137510501E7
:1013B0002A6F0501385105012B6F05017551761112
:1013C000D8A47ED066EC38F0036EF3CF04F0F4CFEF
:1013D00005F0E9CF09F005012D510A6E2E510B6E73
:1013E0002F510C6E30510D6E0A50035E0B50045A93
:1013F0000C50055A0D50095A035005014B6F04500B
:101400004C6F05504D6F7F0E09144E6F05012CB1C6
:1014100025D005014C354E31046E4D31036E043438
:1014200004320332000E04BEFF0E096E056E86C440
:101430000AF00B6A0C6A0D6A0D50800FF36E0950AA
:10144000800FF35C08E105500C5C05E104500B5C77
:1014500002E103500A5C02E205012C8105012CB176
:1014600049D024C503F025C504F026C505F027C5DD
:1014700009F005014E51800FF36E0950800FF35CA7
:1014800008E105504D5D05E104504C5D02E103505B
:101490004B5D08E203C04BF504C04CF505C04DF5AB
:1014A00009C04EF5050139A304D0010E036E046A8C
:1014B00002D00368046803C075F504C076F51AD03D
:1014C00005012C9131C54BF532C54CF533C54DF5B1
:1014D00034C54EF505014B510501246F05014C51F2
:1014E0000501256F05014D510501266F05014E517E
:1014F0000501276F05014E51800F800F08E1000E96
:101500004D5D05E1000E4C5D02E1010E4B5D06E212
:1015100005014F6B506B516B526B46D005014B511F
:10152000036E4C51046E4D51056E4E51E56E0550E3
:10153000E56E0450E56E0350E56E010EE56E000E9B
:10154000E56AE56AE56A37EC29F0036EF3CF04F04B
:10155000F4CF05F0E9CF09F0080EE12675C50AF0D1
:1015600076C50BF0E86A050176BFFF0E0C6E0D6EB6
:101570000950E56E0550E56E0450E56E0350E56ECA
:101580000D50E56E0C50E56E0B50E56E0A50E56EA1
:101590003DEC22F005014F6FF3CF50F5F4CF51F53C
:1015A000E9CF52F5080EE126020E0401815DD8A0B4
:1015B00045D1050139A142D10050230F036E000E21
:1015C0000120046E000E0220E56E0450E56E03500B
:1015D000E56E0EEC00F0030EE1260050230F036EC3
:1015E000000E0120046E000E0220056E020E03267E
:1015F000000E0422052203C0E9FF04C0F3FF0550DA
:1016000079EC39F0F3CF04F0F4CF05F0E9CF09F02D
:101610000450036E0550046ED89004320332D89003
:10162000043203320950E840E840C00B041209407C
:10163000E8403F0BE8BAC009056E096A05BE0968B3
:1016400005013551035C0501536F050136510458FE
:101650000501546F0501375105580501556F050106
:10166000385109580501566FD88056AFD89022E3FB
:101670000401831D046E821D036E034A042AE86A76
:1016800004BEFF0E056E096E05015651800FF36E04
:101690000950800FF35C08E10550555D05E10450E9
:1016A000545D02E10350535D05E30501536B546B38
:1016B000556B566B05015651800F800F08E1000EE7
:1016C000555D05E1000E545D02E1010E535D1EE320
:1016D00082C403F083C404F0E86A040183BFFF0EF0
:1016E000056E800FF36E05015651800FF35C08E123
:1016F0005551055C05E15451045C02E15351035C12
:1017000005E30501536B546B556B566B0401875110
:1017100009E0E86CD89005015337543755375637F0
:10172000010FF9E305015651800F800F08E1000E0B
:10173000555D05E1800E545D02E1000E535D07E347
:10174000050153697F0E546F556B566B14D005011C
:101750005651800F810F08E1FF0E555D05E1800EA7
:10176000545D02E1000E535D06E20501536B800EED
:10177000546F556956690050330F036E000E0120F7
:10178000046E000E0220056E05015351096E54517E
:10179000E56E0950E56E0550E56E0450E56E0350A8
:1017A000E56EDCEC0CF0050EE12604018151030A24
:1017B00023E10050330F036E000E0120046E000E73
:1017C0000220056E0B0E0326000E0422052203C024
:1017D000E9FF04C0F3FF055079EC39F0F3CF04F0D2
:1017E000F4CF05F00450036E0550046E035005015C
:1017F000206F0450216F22D00050330F036E000E73
:101800000120046E000E0220056E0B0E0326000E52
:101810000422052203C0E9FF04C0F3FF055079EC60
:1018200039F0F3CF04F0F4CF05F00450036E055007
:10183000046E03500501226F0450236F81C403F02E
:101840000350010A04E00350030A01E07DD020C5E3
:1018500003F021C504F0E86A050121BFFF0E056E03
:10186000096E05014F51035C0501536F050150518D
:1018700004580501546F0501515105580501556F74
:101880000501525109580501566F800F800F08E17C
:10189000000E555D05E1800E545D02E1000E535DC2
:1018A00007E3050153697F0E546F556B566B14D0D7
:1018B00005015651800F810F08E1FF0E555D05E1CE
:1018C000800E545D02E1000E535D06E20501536B8C
:1018D000800E546F556956690050440F036E000E18
:1018E0000120046E000E0220056E05015351096EA1
:1018F0005451E56E0950E56E0550E56E0450E56EF5
:101900000350E56EDCEC0CF0050EE126440E0026DB
:10191000000E012202220B0E0026000E01220222DE
:1019200000C0E9FF01C0F3FF025079EC39F0F3CFBA
:1019300001F0F4CF02F00150006E0250016E005031
:101940000501226F0150236F0850086EE56A0D0EE5
:10195000E56E800EE56E050EE56E200EE56E085014
:10196000E56E0750E56E0650E56E00EC2DF0080EB2
:10197000E126E4CF0DF0E4CF0CF0E4CF0BF0E4CFA0
:101980000AF0E4CF09F0E4CF08F0E4CF07F0E4CFA9
:1019900006F0E4CF05F0E4CF04F0E4CF03F0E4CFA9
:1019A00002F0E4CF01F0E4CF00F0E4CFD9FF120061
:1019B00025642025640A0000D9CFE5FFE1CFD9FFD7
:1019C00000C0E5FF01C0E5FF02C0E5FF03C0E5FF81
:1019D00004C0E5FF05C0E5FF06C0E5FF07C0E5FF61
:1019E00008C0E5FF09C0E5FF0AC0E5FF0BC0E5FF41
:1019F0000CC0E5FF0DC0E5FF0EC0E5FF020EDBCF1A
:101A000000F0030EDBCF01F0040EDBCF02F0050E79
:101A1000DBCF03F0060EDBCF04F002500A6E01505C
:101A2000096E0050086EE56A110EE56E0A50E56E0B
:101A30000950E56E0850E56E800EE56E040EE56E09
:101A4000230EE56E00EC2DF0080EE12632C405F001
:101A500033C406F0E86A040133BFFF0E076E0401C9
:101A6000FF6F0650FE6F0550FD6FFC6B03C005F065
:101A700004C006F0E86A04BEFF0E076E086E23C4B9
:101A800009F0E56AE56AE56A0950E56E0850E56E19
:101A90000750E56E0650E56E0550E56E3DEC22F010
:101AA0000401F86FF3CFF9F4F4CFFAF4E9CFFBF4C3
:101AB000080EE12604012451D8B4E3D00450800F6D
:101AC000800F02E1010E035C25E304012951800F20
:101AD0007C0F08E1000E285D05E1000E275D02E1A4
:101AE000000E265D17E204013151800FF36E0401F0
:101AF000FF51800FF35C0DE1FE510401305D09E1FF
:101B00000401FD5104012F5D04E10401FC510401B5
:101B10002E5D33E3D88004AED890D8A043D0040122
:101B20002951800F840F08E1000E285D05E1000EA9
:101B3000275D02E1010E265D35E30401FF1D0C6EF9
:101B4000FE1D0B6EFD1D0A6EFC1D096E092A04E1C7
:101B50000A2A02E10B4A0C2A0C50800FF36E040192
:101B60003151800FF35C08E130510B5C05E12F51DE
:101B70000A5C02E12E51095C15E20550040126259C
:101B8000096E065027210A6E075028210B6E085057
:101B900029210C6E0950266F0A50276F0B50286FB1
:101BA0000C50296F0350041031E126C403F027C400
:101BB00004F028C409F029C40AF0E56AE56AE56A78
:101BC000100EE56E0A50E56E0950E56E0450E56EA4
:101BD0000350E56E23EC24F00B6EF3CF0CF0F4CF42
:101BE0000DF0E9CF0EF0080EE1260B50035E0C500D
:101BF000045A0D50095A0E500A5A03500401266F18
:101C00000450276F0950286F0A50296F04012639A4
:101C10000F0B036E2739046EF00B041A03262851AC
:101C2000E838F00B041228390F0B096E29390A6EB7
:101C3000F00B0A1A0926F00E0AB60A2624C40BF085
:101C4000E56AE56AE56A0B50E56E0A50E56E0950F3
:101C5000E56E0450E56E0350E56E3DEC22F0036E38
:101C6000F3CF04F0F4CF09F0E9CF0AF0080EE12633
:101C700003500401F8270450F9230950FA230A50AD
:101C8000FB2304012551D8B465D02A51055C03011A
:101C9000F56F04012B5106580301F66F04012C5116
:101CA00007580301F76F04012D5108580301F86F1D
:101CB000800F800F08E1010EF75D05E1000EF65D73
:101CC00002E1000EF55D06E30301F569F669F76BC5
:101CD000F86B13D00301F851800F810F08E1FF0E5C
:101CE000F75D05E1000EF65D02E1000EF55D05E22F
:101CF0000301F56BF66BF769F8690301F551F525FA
:101D0000036EF635046EF735096EF8350A6E25C494
:101D10000BF0E56AE56AE56A0B50E56E0A50E56E80
:101D20000950E56E0450E56E0350E56E3DEC22F07F
:101D3000036EF3CF04F0F4CF09F0E9CF0AF0080EF8
:101D4000E12603500401F8270450F9230950FA232F
:101D50000A50FB23055004012A6F06502B6F0750D1
:101D60002C6F08502D6F0401FF51800FF36E04019A
:101D7000FB51800FF35C0DE1FA510401FE5D09E1B6
:101D80000401F9510401FD5D04E10401F85104016D
:101D9000FC5D11E20401FC5104012E6F0401FD51B0
:101DA00004012F6F0401FE510401306F0401FF5143
:101DB0000401316F3AD00401FF1D066EFE1D056E51
:101DC000FD1D046EFC1D036E032A04E1042A02E1DA
:101DD000054A062A0401FB51800FF36E0650800F5E
:101DE000F35C08E10550FA5D05E10450F95D02E19C
:101DF0000350F85D0AE2035004012E6F04502F6F68
:101E00000550306F0650316F10D00401F8510401B5
:101E10002E6F0401F95104012F6F0401FA510401DE
:101E2000306F0401FB510401316FE56A110EE56E5C
:101E3000800EE56E040EE56E230EE56E0250E56E33
:101E40000150E56E0050E56E00EC2DF0080EE12625
:101E5000E4CF0EF0E4CF0DF0E4CF0CF0E4CF0BF0C4
:101E6000E4CF0AF0E4CF09F0E4CF08F0E4CF07F0C4
:101E7000E4CF06F0E4CF05F0E4CF04F0E4CF03F0C4
:101E8000E4CF02F0E4CF01F0E4CF00F0E4CFD9FFDB
:101E90001200D9CFE5FFE1CFD9FF00C0E5FF01C0B7
:101EA000E5FF02C0E5FF03C0E5FF04C0E5FF05C094
:101EB000E5FF06C0E5FF07C0E5FF08C0E5FF09C074
:101EC000E5FF0AC0E5FF0BC0E5FF0CC0E5FF020E11
:101ED000DBCF00F0030EDBCF01F0040EDBCF02F00E
:101EE000036A046A90EC38F0056EFE0A01E077D0D0
:101EF00051EC33F090EC38F0066E030E065CD8A07F
:101F00005AD0060E065CD8B056D0FD0E0624076ED9
:101F1000FA6AFB6A0734FA36E834FA36FC0B2E0FFD
:101F2000E56E1F0EFA22000EFB22E450F96E9DEFC3
:101F30000FF0AFEF0FF0C8EF0FF00050090F076E72
:101F4000000E0120086E000E022007C0E9FF08C045
:101F5000F3FFCFEC3AF0036EF3CF04F02CD0005037
:101F6000090F076E000E0120086E000E0220096E98
:101F7000020E0726000E0822092207C0E9FF08C04A
:101F8000F3FF0950CFEC3AF0036EF3CF04F013D017
:101F90000050070F076E000E0120086E000E022091
:101FA00007C0E9FF08C0F3FF56EC3BF0010B076EDA
:101FB00007C003F0046A06C007F00450E56E035042
:101FC000E56EE56A0750E56E000EE56E190EE56EEA
:101FD000B00EE56E2EEC36F0070EE1269AD1080E13
:101FE000055CD8B096D1FA6AFB6A0534FA36E83453
:101FF000FA36FC0B040FE56E200EFA22000EFB22CF
:10200000E450F96E12EF10F02DEF10F03FEF10F0EA
:1020100051EF10F083EF10F0B9EF10F0D8EF10F09F
:1020200035EF11F00050230F056E000E0120076EF2
:10203000000E0220E56E0750E56E0550E56E52EC8D
:102040001AF0030EE126020EE56E00C0E9FF01C0A2
:10205000F3FF0250CEEC3BF05CD10050330F056E25
:10206000000E0120076E000E0220E56E0750E56E9F
:102070000550E56ECCEC1EF0030EE1264AD100506F
:10208000440F056E000E0120076E000E0220E56E63
:102090000750E56E0550E56ECCEC1EF0030EE12610
:1020A00038D10050090F056E000E0120076E000E9A
:1020B0000220086E90EC38F00C6E0B6AE56A0CC0DA
:1020C000F4FF05C0E9FF07C0F3FF0850A0EC3BF0A8
:1020D00090EC38F00A6A0B260A500C220BC0E5FF80
:1020E0000CC0F4FF05C0E9FF07C0F3FF0850A0ECE7
:1020F0003BF0010EE56E00C0E9FF01C0F3FF0250A6
:10210000CEEC3BF006D10050090F056E000E012009
:10211000076E000E0220086E020E0526000E072232
:10212000082290EC38F00C6E0B6AE56A0CC0F4FFE4
:1021300005C0E9FF07C0F3FF0850A0EC3BF090ECAE
:1021400038F00A6A0B260A500C220BC0E5FF0CC0BF
:10215000F4FF05C0E9FF07C0F3FF0850A0EC3BF017
:10216000E56A00C0E9FF01C0F3FF0250CEEC3BF08E
:10217000D0D00050070F056E000E0120076E000E34
:102180000220086E90EC38F0010BF46E05C0E9FFF8
:1021900007C0F3FF085056EC3BF0FE0BF410E56E61
:1021A00005C0E9FF07C0F3FF0850CEEC3BF0B1D00B
:1021B00090EC38F0066E0050160F056E000E0120F0
:1021C000076E000E0220086E05500C0F096E000EFF
:1021D00007200A6E000E08200B6E0650D880E866B5
:1021E000D8900C6A0C360C50D880E866D8900C6AEF
:1021F0000C360C50010BF46E09C0E9FF0AC0F3FF66
:102200000B5056EC3BF0FE0BF410E56E09C0E9FFF5
:102210000AC0F3FF0B50CEEC3BF00650010A01E080
:1022200078D0080E0526000E07220822E56AF46A17
:10223000F66AF76A05C0E9FF07C0F3FF085045ECEE
:102240003BF00050230F056E000E0120066E000EBD
:102250000220E56AE56AE56E0650E56E0550E56E1A
:10226000E1EC2AF0050EE12654D090EC38F0046E33
:10227000036A90EC38F0066A0326065004220050E8
:10228000160F056E000E0120066E000E0220076E6E
:1022900005500C0F086E000E0620096E000E072078
:1022A0000A6E08C0E9FF09C0F3FF56EC3BF0E88076
:1022B000E56E08C0E9FF09C0F3FF0A50CEEC3BF021
:1022C000080E0526000E0622072203C008F004C0EF
:1022D00009F008C0E5FF09C0F4FFF66AF76A05C017
:1022E000E9FF06C0F3FF075045EC3BF0230E002644
:1022F000000E012202220450E56E0350E56E0250EA
:10230000E56E0150E56E0050E56ED3EC2EF0050E43
:10231000E126E4CF0CF0E4CF0BF0E4CF0AF0E4CFF9
:1023200009F0E4CF08F0E4CF07F0E4CF06F0E4CF03
:1023300005F0E4CF04F0E4CF03F0E4CF02F0E4CF03
:1023400001F0E4CF00F0E4CFD9FF120000C0E5FFB8
:1023500001C0E5FF02C0E5FF03C0E5FF04C0E5FFE3
:1023600005C0E5FF06C0E5FF07C0E5FF08C0E5FFC3
:1023700009C0E5FF0AC0E5FFC2A204D0040149512B
:10238000E1EF13F004014A51D8B431D104014951AD
:10239000020DF450016EF3CF00F0E00E0026000EA7
:1023A000012200C0E9FF01C0EAFFEECF00F0EFCF4D
:1023B00001F0E80E4925026E036A040E032202C0F2
:1023C000E9FF03C0EAFFEFCF02F00250FF0A01E18C
:1023D00066D002380F0B036E920E0324046E056A5A
:1023E0000F0E0522066A920E03260F0E062203C068
:1023F000E9FF06C0EAFFEFCF03F00250066E070EBA
:102400000616010E076E06500DE006E6E86CD89041
:102410000736010FFDE306D0D89007BED8800732FB
:10242000010FFBE3071C066E0350061604C0E9FF0C
:1024300005C0EAFF06C0EFFF02380F0B036E890EDE
:102440000324046E056A0F0E0522066A890E032610
:102450000F0E062203C0E9FF06C0EAFFEFCF03F02C
:102460000250066E070E0616010E076E06500DE0AE
:1024700006E6E86CD8900736010FFDE306D0D89049
:1024800007BED8800732010FFBE3071C066E03501E
:10249000061604C0E9FF05C0EAFF06C0EFFF04010D
:1024A0004951020DF450046EF3CF03F0E00E032601
:1024B000000E042200380F0B056E0138066EF00B7B
:1024C000061A052606320532F80E06B40626055011
:1024D000005C056E06500158066EC3CF07F0086A0F
:1024E0000750052608500622C4CF07F0086A075097
:1024F0000A6E096A095005260A50062203C0E9FF40
:1025000004C0EAFF05C0EEFF06C0EFFF040145511D
:10251000010A01E06AD004014951020DF450046E31
:10252000F3CF03F0E00E0324056E000E0420066EC8
:1025300005C0E9FF06C0EAFFEECF00F0EFCF01F0E3
:10254000750E0326030E042203C0E9FF04C0EAFF50
:10255000EECF05F0EFCF06F09C0E0526D8A00606BC
:102560000150800FF36E0650800FF35C02E10550BE
:10257000005C0EE20050640F056E000E0120066E36
:1025800003C0E9FF04C0EAFF05C0EEFF06C0EFFF8D
:1025900004014951020DF450046EF3CF03F0950E7F
:1025A0000326030E042203C0E9FF04C0EAFFEECFB6
:1025B00005F0EFCF06F0640E0526D8B0062A0650C7
:1025C000800FF36E0150800FF35C02E10050055C58
:1025D0000CE29C0E0026D8A0010603C0E9FF04C04F
:1025E000EAFF00C0EEFF01C0EFFF04014A6B0401E7
:1025F000492B100E495D01E3496B04014939E84458
:102600001F0B006E016A7B0E0026050E012200C022
:10261000E9FF01C0EAFFEFCF00F049C401F0070E67
:102620000116010E036E000E046E015006E0E86C08
:10263000D89003360436010FFCE3056A00500316F8
:102640000550041603500410D880E866D890036A39
:1026500003360350D8A4B3D0000E04014925006E00
:10266000016A050E012200C0E9FF01C0EAFFEFCFB9
:1026700000F00044E844FC0B016E0128C26EE80E35
:102680004925006E016A040E012200C0E9FF01C065
:10269000EAFFEFCF02F00250FF0A01E18CD00238CE
:1026A0000F0B006E920E0024016E036A0F0E0322C0
:1026B000046A920E00260F0E042200C0E9FF04C037
:1026C000EAFFEFCF00F00250046E070E0416010E71
:1026D000056E04500DE006E6E86CD8900536010F53
:1026E000FDE306D0D89005BED8800532010FFBE38C
:1026F0000050051201C0E9FF03C0EAFF05C0EFFF6B
:10270000380E006E0F0E016E02380F0B036E046A56
:102710000350002604500122380E056E0F0E066E7F
:10272000055003260650042203C0E9FF04C0EAFF57
:10273000EFCF03F0070E0216010E046E02500DE0FB
:1027400006E6E86CD8900436010FFDE306D0D89079
:1027500004BED8800432010FFBE30350041200C012
:10276000E9FF01C0EAFF04C0EFFF0F01458300004D
:10277000000045930F0144930BC0E5FFF2CF0BF02F
:10278000F29E4481000000000000000000000000F4
:102790000000000000000000000000000000000039
:1027A00000000000000000000000000044910BBE8B
:1027B000F28EE4CF0BF0C282010E04014A6F0401D5
:1027C0004951E4CF0AF0E4CF09F0E4CF08F0E4CFB8
:1027D00007F0E4CF06F0E4CF05F0E4CF04F0E4CF57
:1027E00003F0E4CF02F0E4CF01F0E4CF00F01200F8
:1027F00000C0E5FF01C0E5FF02C0E5FF03C0E5FF43
:1028000004C0E5FF05C0E5FF06C0E5FF07C0E5FF22
:1028100008C0E5FF09C0E5FF0AC0E5FF0BC0E5FF02
:102820000CC0E5FF006A016A026A040E025CD8B0BF
:10283000ECD101C003F0012A100E035CD8B0E5D141
:1028400004014B2B100E4B5D01E34B6B04014B3924
:10285000E8441F0B036E046A7B0E0326050E042258
:1028600003C0E9FF04C0EAFFEFCF03F04BC404F05C
:10287000070E0416010E056E000E066E045006E0EB
:10288000E86CD89005360636010FFCE3076A035062
:1028900005160750061605500610D880E866D89031
:1028A000056A05360550D8A4C0D704014B51020D66
:1028B000F450046EF3CF03F0E00E0324056E000E17
:1028C0000420066E05C0E9FF06C0EAFFEECF05F062
:1028D000EFCF06F048C407F007A09DD0750E032483
:1028E000076E030E0420086E07C0E9FF08C0EAFF68
:1028F000EECF07F0EFCF08F00650800FF36E0850D0
:10290000800FF35C02E10750055C03E2056A066A8A
:1029100060D0950E0326030E042203C0E9FF04C015
:10292000EAFFEECF03F0EFCF04F00450800FF36E18
:102930000650800FF35C02E10550035C04E2056879
:102940003F0E066E46D00750055C096E08500658CB
:102950000A6EE86A0ABEFF0E0B6EE56E0B50E56E5E
:102960000A50E56E0950E56EE56AE56A400EE56ECF
:10297000000EE56A3DEC22F0096EF3CF0AF0F4CFC9
:102980000BF0E9CF0CF0080EE1260750035C076E50
:1029900008500458086EE86A08BEFF0E036EE56E24
:1029A0000350E56E0850E56E0750E56E0C50E56E7D
:1029B0000B50E56E0A50E56E0950E56E37EC29F0D4
:1029C000036EF3CF04F0080EE1260350056E0450A9
:1029D000066E04014751800FF36E0650800FF35CC2
:1029E00002E10550465D03E3056A066A14D004015E
:1029F0004651FF08036E3F0E4755046E0650800F88
:102A0000F36E0450800FF35C02E10350055C03E3B6
:102A100005683F0E066E04014B51020DF450046E22
:102A2000F3CF03F0550E0326030E042203C0E9FF83
:102A300004C0EAFFEECF03F0EFCF04F00350055CD3
:102A4000036E04500658046ED88004AED89004E398
:102A5000041E036CD8B4042A022A04014751800FD3
:102A6000F36E0450800FF35C02E10350465DD8B072
:102A7000DCD604014B51020DF450086EF3CF07F081
:102A8000550E0726030E082207C0E9FF08C0EAFF1B
:102A900005C0EEFF06C0EFFF48C407F007A459D0F9
:102AA0004B51020DF450086EF3CF07F0B50E07241A
:102AB000096E030E08200A6E09C0E9FF0AC0EAFF8A
:102AC000EECF0BF0EFCF0CF00B500C10D8B441D080
:102AD0005B0E0726040E082207C0E9FF08C0EAFFC4
:102AE000EECF07F0EFCF08F00750055C036E0850FB
:102AF0000658046E03101CE00450800F800F02E1A2
:102B0000010E035C076A07360C50800F800F02E14C
:102B1000010E0B5C0B6A0B3607500B1809E109C05C
:102B2000E9FF0AC0EAFF03C0EEFF04C0EFFF7DD655
:102B300004014B51020DF450046EF3CF03F0B50EB7
:102B40000326030E042203C0E9FF04C0EAFFEE6A75
:102B5000EF6A48C403F003A244D000500EE100C065
:102B600003F0002A046A4C0E0326040E042203C05C
:102B7000E9FF04C0EAFF420EEF6E00C003F0002A36
:102B8000046A4C0E0326040E042204014B51076E06
:102B9000640E072603C0E9FF04C0EAFF07C0EFFF89
:102BA00000C003F0002A046A4C0E0326040E04221F
:102BB0000650076E03C0E9FF04C0EAFF07C0EFFF3D
:102BC00000C003F0002A046A4C0E0326040E0422FF
:102BD0000550076E03C0E9FF04C0EAFF07C0EFFF1E
:102BE00024D64BC403F00650E56E0550E56EE56A49
:102BF0000350E56E000EE56E590EE56EF40EE56EBF
:102C00002EEC36F0070EE12610D602C001F000507F
:102C10001EE048C402F002A21AD000C002F0002A4E
:102C2000036A4C0E0226040E032202C0E9FF03C011
:102C3000EAFF0A0EEF6E0050E56E800EE56E040EA0
:102C4000E56E4C0EE56EFAEC2BF0040EE126015019
:102C5000E4CF0CF0E4CF0BF0E4CF0AF0E4CF09F0BE
:102C6000E4CF08F0E4CF07F0E4CF06F0E4CF05F0BE
:102C7000E4CF04F0E4CF03F0E4CF02F0E4CF01F0BE
:102C8000E4CF00F0120000C0E5FF01C0E5FF02C084
:102C9000E5FF03C0E5FFE3EC26F0A6EC11F0E3EC62
:102CA00026F0F2EC24F066EC38F0006EF3CF01F081
:102CB000F4CF02F0E9CF03F00F013351005E34513D
:102CC000015A3551025A3651035A039E3F0E035C96
:102CD00008E1FF0E025C05E1FF0E015C02E1FF0E60
:102CE000005CD8B05FEF18F066EC38F0F3CF01F07D
:102CF000F4CF02F0E9CF03F0880F0F01336F130E0A
:102D00000120346F000E0220356F000E0320366F55
:102D10002BEC21F0006E0050D8B4F8EC13F004C096
:102D2000E5FFF2CF04F0F29E0401A95105012D6FD9
:102D30000401AA5105012E6F0401AB5105012F6F4B
:102D40000401AC510501306F0401AD510501316F33
:102D50000401AE510501326F0401AF510501336F1B
:102D60000401B0510501346F0401B1510501356F03
:102D70000401B2510501366F0401B3510501376FEB
:102D80000401B4510501386F0401B5510501396FD3
:102D90000401AD6BAE6BAF6BB06B04BEF28EE4CFD3
:102DA00004F0800EE56E040EE56E930EE56E51ECB8
:102DB00009F0030EE1269EC477F59FC478F505015E
:102DC0007851800F7C0F02E1000E775D04E305016E
:102DD0007769030E786F05017851800F840F02E147
:102DE000010E775D05E2010E0501776FFC0E786F2D
:102DF00005017851800F800F02E1010E775D10E32D
:102E000005017851800FF36E04019751800FF35C38
:102E100003E196510501775D03E20501776B786B5D
:102E2000D880050178AFD89015E30401971D016E95
:102E3000961D006E004A012A0150800FF36E0501B5
:102E40007851800FF35C02E17751005C03E20501E9
:102E5000776B786B04019AA309D0B5A507D0D88009
:102E6000050178AFD89002E3776B786BD8800501C5
:102E700078AFD89007E37751FF0F006E030E7821EB
:102E8000016E04D077C500F078C501F000C079F577
:102E900001C07AF505017951020BE840010BE838D1
:102EA000E844F46EBD50DF0BF410BD6E7951010B98
:102EB000010BE838F46EBD50EF0BF410BD6E7A359F
:102EC0007A31016E7931006E0134013200320050E6
:102ED000BE6ED880050178AFD89002E3898C01D00E
:102EE000899C04C0E5FFF2CF04F0F29E0301165165
:102EF00005012D6F0301175105012E6F03011851B4
:102F000005012F6F030119510501306F03011A519B
:102F10000501316F03011B510501326F03011C5183
:102F20000501336F03011D510501346F03011E516B
:102F30000501356F03011F510501366F0301205153
:102F40000501376F030121510501386F030122513B
:102F50000501396F03011A6B1B6B1C6B1D6B04BEE3
:102F6000F28EE4CF04F0800EE56E030EE56E000EE7
:102F7000E56E51EC09F0030EE1260BC377F50CC3A7
:102F800078F505017851800F7C0F02E1000E775D26
:102F900004E305017769030E786F05017851800F0E
:102FA000840F02E1010E775D05E2010E0501776FE6
:102FB000FC0E786F05017851800F800F02E1010E41
:102FC000775D10E305017851800FF36E0301045122
:102FD000800FF35C03E103510501775D03E2050116
:102FE000776B786BD880050178AFD89015E3030133
:102FF000041D016E031D006E004A012A0150800F5E
:10300000F36E05017851800FF35C02E17751005CAB
:1030100003E20501776B786B030107A309D022A5B2
:1030200007D0D880050178AFD89002E3776B786B32
:10303000D880050178AFD89007E37751FF0F006E75
:10304000030E7821016E04D077C500F078C501F039
:1030500000C079F501C07AF505017951020BE8400D
:10306000010BE838E844F46E6650DF0BF410666E2E
:103070007951010B010BE838F46E6650EF0BF41038
:10308000666E7A357A31016E7931006E0134013223
:1030900000320050676ED880050178AFD89002E307
:1030A000898E01D0899EE3EC26F03AC400F0040139
:1030B0003A07005004E139C43AF404017F2BE4CF0D
:1030C00003F0E4CF02F0E4CF01F0E4CF00F012000F
:1030D00000C0E5FF01C0E5FF02C0E5FF03C0E5FF5A
:1030E00005C0E5FF06EC3CF020EC35F0330ECD6E6C
:1030F0009D809F80949E0F015A6B0F015A830C0E86
:103100000F015D6F93900F01576F8A98899C8B8494
:10311000040189859398929C9494040192959283DA
:10312000800E006E040E016E0F0E036E380E002628
:10313000035001220F0E036E800E005E0350015AF1
:10314000800E026E040E036E0F0E056E380E022600
:10315000055003220F0E056E800E025E0550035AC5
:1031600002C0E9FF03C0EAFFEFCF02F0029200C005
:10317000E9FF01C0EAFF02C0EFFF9283800E006EFC
:10318000040E016E0F0E036E380E0026035001224E
:103190000F0E036E800E005E0350015A800E026E09
:1031A000040E036E0F0E056E380E02260550032224
:1031B0000F0E056E800E025E0550035A02C0E9FF35
:1031C00003C0EAFFEFCF02F0029200C0E9FF01C0A6
:1031D000EAFF02C0EFFF9283800E006E040E016EC4
:1031E0000F0E036E380E0026035001220F0E036EE1
:1031F000800E005E0350015A800E026E040E036EB4
:103200000F0E056E380E0226055003220F0E056EB6
:10321000800E025E0550035A02C0E9FF03C0EAFFB8
:10322000EFCF02F0029200C0E9FF01C0EAFF02C046
:10323000EFFF0C0EBD6EBD9ABD98BE6AB96AB98625
:103240000401936B020E946F956B0A0E966F976B49
:10325000100E986F070E996F9A919A83800EE56E03
:10326000040EE56EB60EE56EFEEC32F0030EE126BE
:10327000800EE56E040EE56ED70EE56E10EC28F0BC
:10328000030EE126800EE56E040EE56EC60EE56EB9
:1032900010EC28F0030EE1260401B16BB26BB36BA6
:1032A000B46BB591B5959C6B9D6B9E6B9F6BA46B3E
:1032B000A56BA66BA76B8A96899E8B800401898576
:1032C0009396929E9490040192959283800E006E44
:1032D000040E016E0F0E036E380E002603500122FD
:1032E0000F0E036E800E005E0350015A800E026EB8
:1032F000040E036E0F0E056E380E022605500322D3
:103300000F0E056E800E025E0550035A02C0E9FFE3
:1033100003C0EAFFEFCF02F0029200C0E9FF01C054
:10332000EAFF02C0EFFF9283800E006E040E016E72
:103330000F0E036E380E0026035001220F0E036E8F
:10334000800E005E0350015A800E026E040E036E62
:103350000F0E056E380E0226055003220F0E056E65
:10336000800E025E0550035A02C0E9FF03C0EAFF67
:10337000EFCF02F0029200C0E9FF01C0EAFF02C0F5
:10338000EFFF9283800E006E040E016E0F0E036E2F
:10339000380E0026035001220F0E036E800E005ED1
:1033A0000350015A800E026E040E036E0F0E056E5E
:1033B000380E0226055003220F0E056E800E025EA7
:1033C0000550035A02C0E9FF03C0EAFFEFCF02F045
:1033D000029200C0E9FF01C0EAFF02C0EFFF0C0E3D
:1033E000666E669A6698676A0301006B020E016F4B
:1033F000026B0A0E036F046B100E056F070E066F4B
:1034000007910783800EE56E030EE56E230EE56ED1
:10341000FEEC32F0030EE126800EE56E030EE56E43
:10342000440EE56E10EC28F0030EE126800EE56EEA
:10343000030EE56E330EE56E10EC28F0030EE12668
:1034400003011E6B1F6B206B216B22912295096B70
:103450000A6B0B6B0C6B116B126B136B146B7DECAB
:103460002CF020EC35F066EC38F0F3CF01F0F4CF1F
:1034700002F0E9CF03F0880F0F01336F130E012024
:10348000346F000E0220356F000E0320366FE4CF3C
:1034900005F0E4CF03F0E4CF02F0E4CF01F0E4CF95
:1034A00000F01200D9CFE5FFE1CFD9FF00C0E5FF62
:1034B00001C0E5FF02C0E5FF03C0E5FF04C0E5FF72
:1034C00005C0E5FF06C0E5FF07C0E5FF08C0E5FF52
:1034D00009C0E5FF0AC0E5FF0BC0E5FF020EDBCF28
:1034E00000F0030EDBCF01F0040EDBCF02F0036A25
:1034F000046A90EC38F0056EFE0A01E094D051ECBD
:1035000033F090EC38F0066E06500EE00650010ADB
:103510001DE00650020A2CE006500A0A3BE0065065
:103520000B0A01E142D06DD00050060F076E000E6D
:103530000120086E000E022007C0E9FF08C0F3FF5B
:10354000CFEC3AF0036EF3CF04F05BD000500C0FD9
:10355000076E000E0120086E000E022007C0E9FF72
:1035600008C0F3FFCFEC3AF0036EF3CF04F049D07C
:1035700000500E0F076E000E0120086E000E022094
:1035800007C0E9FF08C0F3FFCFEC3AF0036EF3CFBA
:1035900004F037D000C0E9FF01C0F3FF0250CFECC8
:1035A0003AF0036EF3CF04F02CD00050020F076EF8
:1035B000000E0120086E000E0220096E07C0E9FF10
:1035C00008C0F3FF095079EC39F0F3CF08F0F4CFDD
:1035D00009F0E9CF0AF00850076E0950086ED8903C
:1035E00008320732D890083207320A50E840E840E3
:1035F000C00B08120A40E8403F0B0750036E08500A
:10360000046E0450E56E0350E56EE56A0650E56E03
:10361000000EE56E660EE56E9A0EE56E2EEC36F047
:10362000070EE126DBD0055014E00550010A3AE010
:103630000550020A01E15FD005500A0A01E184D079
:1036400005500B0A01E199D005500C0A01E1AED0FA
:10365000C5D00050060F056E000E0120066E000E4C
:103660000220076E90EC38F00B6E0A6AE56A0BC018
:10367000F4FF05C0E9FF06C0F3FF0750A0EC3BF0E4
:1036800090EC38F0096A0A2609500B220AC0E5FFBF
:103690000BC0F4FF05C0E9FF06C0F3FF0750A0EC24
:1036A0003BF09CD000500C0F056E000E0120066E02
:1036B000000E0220076E90EC38F00B6E0A6AE56A85
:1036C0000BC0F4FF05C0E9FF06C0F3FF0750A0ECF4
:1036D0003BF090EC38F0096A0A2609500B220AC028
:1036E000E5FF0BC0F4FF05C0E9FF06C0F3FF07507C
:1036F000A0EC3BF073D000500E0F056E000E0120C1
:10370000066E000E0220076E90EC38F00B6E0A6A0F
:10371000E56A0BC0F4FF05C0E9FF06C0F3FF0750E0
:10372000A0EC3BF090EC38F0096A0A2609500B2215
:103730000AC0E5FF0BC0F4FF05C0E9FF06C0F3FFB8
:103740000750A0EC3BF04AD090EC38F0046E036ACE
:1037500090EC38F0066A0326065004220450E56E09
:103760000350E56E0250E56E0150E56E0050E56EC7
:103770009BEC37F0050EE12631D090EC38F0046E6A
:10378000036A90EC38F0066A0326065004220450BF
:10379000E56E0350E56E0250E56E0150E56E005097
:1037A000E56EE1EC2AF0050EE12618D090EC38F039
:1037B000046E036A90EC38F0066A03260650042271
:1037C0000450E56E0350E56E0250E56E0150E56E63
:1037D0000050E56ED3EC2EF0050EE126E4CF0BF0A1
:1037E000E4CF0AF0E4CF09F0E4CF08F0E4CF07F02B
:1037F000E4CF06F0E4CF05F0E4CF04F0E4CF03F02B
:10380000E4CF02F0E4CF01F0E4CF00F0E4CFD9FF41
:10381000120000C0E5FF01C0E5FF02C0E5FF03C0E4
:10382000E5FF9EA06CD1006A040180B3002A00501D
:10383000010BF46E04019B51FE0BF4109B6F04010D
:1038400080B308D00401B16BB26BB36BB46BB581BC
:10385000B58502D00401B595006A04019BB1002A28
:10386000016A9BB5012A0050011801E190D0006A5D
:1038700004019BB1002A0050010BE844E844F46EB7
:103880009B51FB0BF4109B6FA951AD5D006EAA51CB
:10389000AE59016EAB51AF59026EAC51B059036EC7
:1038A0000050AD6F0150AE6F0250AF6F0350B06F5C
:1038B00004018A510401A96F04018B510401AA6F0C
:1038C00004018C510401AB6F04018D510401AC6FF4
:1038D00004018A5100268B5101228C5102228D5104
:1038E000032200500401AD6F0150AE6F0250AF6F64
:1038F0000350B06F006A040180B3002A0050010B2E
:10390000E844F46E04019B51FD0BF4109B6F006AB8
:103910009BB1002A016A9BB3012A0150D880E86656
:10392000D890016A01360150001A005019E0B1C464
:1039300000F0B2C401F0B3C402F0B4C403F0002A32
:1039400004E3012A02E3024A032A00500401B16F92
:103950000150B26F0250B36F0350B46FB58317D0EC
:10396000B1C400F0B2C401F0B3C402F0B4C403F0B7
:10397000FF0E002601220222032200500401B16F33
:103980000150B26F0250B36F0350B46FB593006A29
:10399000040180B3002A0050010BF46E03010851AA
:1039A000FE0BF410086F040180B308D003011E6BF6
:1039B0001F6B206B216B2281228502D0030122958F
:1039C000006A030108B1002A016A08B5012A005003
:1039D000011801E190D0006A030108B1002A0050EB
:1039E000010BE844E844F46E0851FB0BF410086F37
:1039F00016511A5D006E17511B59016E18511C5952
:103A0000026E19511D59036E00501A6F01501B6F41
:103A100002501C6F03501D6F04018A510301166F81
:103A200004018B510301176F04018C510301186FBE
:103A300004018D510301196F04018A5100268B5135
:103A400001228C5102228D510322005003011A6F72
:103A500001501B6F02501C6F03501D6F006A040160
:103A600080B3002A0050010BE844F46E03010851B2
:103A7000FD0BF410086F006A08B1002A016A08B350
:103A8000012A0150D880E866D890016A01360150B9
:103A9000001A005019E01EC300F01FC301F020C33C
:103AA00002F021C303F0002A04E3012A02E3024AE0
:103AB000032A005003011E6F01501F6F0250206F38
:103AC0000350216F228317D01EC300F01FC301F0E3
:103AD00020C302F021C303F0FF0E002601220222C0
:103AE0000322005003011E6F01501F6F0250206F10
:103AF0000350216F2293CF68EB0ECE6E9E90E4CFE1
:103B000003F0E4CF02F0E4CF01F0E4CF00F01200C4
:103B1000430025630000800EE56E030EE56E950EF2
:103B2000E56EA3EC33F0030EE126800EE56E030E86
:103B3000E56E750EE56EA3EC33F0030EE126800E04
:103B4000E56E030EE56E970EE56EA3EC33F0030E03
:103B5000E126800EE56E030EE56E770EE56EA3ECB2
:103B600033F0030EE126800EE56E030EE56E990E2E
:103B7000E56EA3EC33F0030EE126800EE56E030E36
:103B8000E56E790EE56EA3EC33F0030EE126800EB0
:103B9000E56E030EE56E9B0EE56EA3EC33F0030EAF
:103BA000E126800EE56E030EE56E7B0EE56EA3EC5E
:103BB00033F0030EE126800EE56E030EE56E9D0EDA
:103BC000E56EA3EC33F0030EE126800EE56E030EE6
:103BD000E56E7D0EE56EA3EC33F0030EE126800E5C
:103BE000E56E030EE56E9F0EE56EA3EC33F0030E5B
:103BF000E126800EE56E030EE56E7F0EE56EA3EC0A
:103C000033F0030EE126800EE56E030EE56EA10E85
:103C1000E56EA3EC33F0030EE126800EE56E030E95
:103C2000E56E810EE56EA3EC33F0030EE126800E07
:103C3000E56E030EE56EA30EE56EA3EC33F0030E06
:103C4000E126800EE56E030EE56E830EE56EA3ECB5
:103C500033F0030EE126800EE56E030EE56EA50E31
:103C6000E56EA3EC33F0030EE126800EE56E030E45
:103C7000E56E850EE56EA3EC33F0030EE126800EB3
:103C8000E56E030EE56EA70EE56EA3EC33F0030EB2
:103C9000E126800EE56E030EE56E870EE56EA3EC61
:103CA00033F0030EE126800EE56E030EE56EA90EDD
:103CB000E56EA3EC33F0030EE126800EE56E030EF5
:103CC000E56E890EE56EA3EC33F0030EE126800E5F
:103CD000E56E030EE56EAB0EE56EA3EC33F0030E5E
:103CE000E126800EE56E030EE56E8B0EE56EA3EC0D
:103CF00033F0030EE126800EE56E030EE56EAD0E89
:103D0000E56EA3EC33F0030EE126800EE56E030EA4
:103D1000E56E8D0EE56EA3EC33F0030EE126800E0A
:103D2000E56E030EE56EAF0EE56EA3EC33F0030E09
:103D3000E126800EE56E030EE56E8F0EE56EA3ECB8
:103D400033F0030EE126800EE56E030EE56EB10E34
:103D5000E56EA3EC33F0030EE126800EE56E030E54
:103D6000E56E910EE56EA3EC33F0030EE126800EB6
:103D7000E56E030EE56EB30EE56EA3EC33F0030EB5
:103D8000E126800EE56E030EE56E930EE56EA3EC64
:103D900033F0030EE1261200D9CFE5FFE1CFD9FFC2
:103DA00000C0E5FF01C0E5FF02C0E5FF03C0E5FF7D
:103DB00004C0E5FF05C0E5FF06C0E5FF07C0E5FF5D
:103DC00008C0E5FF020EDBCF00F0030EDBCF01F0F1
:103DD000040EDBCF02F0036A046A90EC38F0056E43
:103DE000FE0A01E075D051EC33F090EC38F0066E2D
:103DF000040E065CD8B05AD0FA6AFB6A0634FA366A
:103E0000E834FA36FC0B160FE56E3E0EFA22000E71
:103E1000FB22E450F96E13EF1FF01FEF1FF032EF9B
:103E20001FF045EF1FF000C0E9FF01C0F3FF025093
:103E300056EC3BF0076E07C003F0046A37D0005021
:103E4000010F076E000E0120086E000E022007C051
:103E5000E9FF08C0F3FF56EC3BF0076E07C003F024
:103E6000046A24D00050020F076E000E0120086E75
:103E7000000E022007C0E9FF08C0F3FF56EC3BF03C
:103E8000076E07C003F0046A11D000500F0F076ED1
:103E9000000E0120086E000E022007C0E9FF08C0D6
:103EA000F3FFCFEC3AF0036EF3CF04F00450E56E6D
:103EB0000350E56EE56A0650E56E000EE56E510EA4
:103EC000E56E400EE56E2EEC36F0070EE1268DD045
:103ED000040E055CD8B089D0FA6AFB6A0534FA365C
:103EE000E834FA36FC0BF60FE56E3E0EFA22000EB1
:103EF000FB22E450F96E83EF1FF090EF1FF0BBEF51
:103F00001FF0D1EF1FF090EC38F0036E03C0E5FF17
:103F100000C0E9FF01C0F3FF0250CEEC3BF065D0DA
:103F20000050010F036E000E0120046E000E0220EF
:103F3000056E90EC38F0066E06C0E5FF03C0E9FFA1
:103F400004C0F3FF0550CEEC3BF00650D8A44DD092
:103F50000050030F036E000E0120046E000E0220BD
:103F6000E56AF46AF66AF76A03C0E9FF04C0F3FF82
:103F700045EC3BF03AD00050020F036E000E0120DA
:103F8000046E000E0220056E90EC38F0066E06C03E
:103F9000E5FF03C0E9FF04C0F3FF0550CEEC3BF0A2
:103FA00024D00F0E0026000E0122022290EC38F0E1
:103FB000066E056AE56A06C0F4FF00C0E9FF01C0AD
:103FC000F3FF0250A0EC3BF090EC38F0046A0526B9
:103FD0000450062205C0E5FF06C0F4FF00C0E9FF5B
:103FE00001C0F3FF0250A0EC3BF0E4CF08F0E4CFB7
:103FF00007F0E4CF06F0E4CF05F0E4CF04F0E4CF1F
:1040000003F0E4CF02F0E4CF01F0E4CF00F0E4CF1E
:10401000D9FF120000C0E5FF01C0E5FF02C0E5FFC7
:1040200003C0E5FF04014251D8B40CD1A3A81DD0B0
:10403000A4A81BD005018B510501881905E184EC6A
:104040003BF00501886BFED0000E05018B25006E4C
:10405000016A040E012200C0E9FF01C0EAFFEFCFB0
:1040600084F58B2B84C573FFEDD0A3AAEBD0A4AA53
:10407000E9D071A205D00501898184EC3BF0E2D042
:1040800071A405D00501898384EC3BF0DBD071A0DD
:1040900048D074CF84F543C400F0016A008E84C513
:1040A00002F0036A0250001803E10350011801E016
:1040B00004D0050189897196C5D00501845104E0B9
:1040C00084510401431929E105018999719605017B
:1040D000845103E00501899702D00501898784C5D1
:1040E0008DF586C58EF505018651006E000405012B
:1040F0008F6F600E05018E25006E016A000E012291
:1041000000C0E9FF01C0EAFF84C5EFFF8E2B8E518E
:10411000800A02E105018E6B95D0050189997186AF
:1041200091D074CF84F5050189A921D043C400F052
:10413000016A008E84C502F0036A0250001803E190
:104140000350011801E011D0A39A7198929A0501C9
:10415000885104E1736A84EC3BF007D000C473FF1C
:10416000010E05018B6FA3886DD071866BD00501A0
:10417000845105018D2705018E5105018F191BE121
:1041800005018D510CE18EC586F5050189B712D068
:10419000A39A7198929A736A84EC3BF00BD0050154
:1041A000898589B707D0A39A7198929A010E736E88
:1041B00084EC3BF047D005018E510501871908E1D9
:1041C000050187510501861903E084EC3BF03AD0E4
:1041D00086C500F0016A004A012AE56A800EE56E94
:1041E0000150E56E0050E56EF9EC2DF0006E040E06
:1041F000E12600500501856F05018E190FE184C588
:1042000000F01F0E001405018F6F006E020E0024D7
:104210008F6F0501865105018F278F9F8EC500F096
:1042200005018E2B016A600E0026000E012200C0DF
:10423000E9FF01C0EAFF84C5EFFF8E51800A02E169
:1042400005018E6BE4CF03F0E4CF02F0E4CF01F080
:10425000E4CF00F0120000C0E5FF01C0E5FF02C09E
:10426000E5FF03C0E5FF04C0E5FF05C0E5FF06C0AC
:10427000E5FF07C0E5FF08C0E5FF09C0E5FF006AEC
:10428000016A040E015CD8B0E2D0100E0401592579
:10429000026E036A050E032202C0E9FF03C0EAFFB3
:1042A000EFCF02F00250FF0A01E1CAD004015939F0
:1042B000E8441F0B026E7F0E0224036E046A050E93
:1042C000042203C0E9FF04C0EAFFEFCF03F059C4A2
:1042D00004F0070E0416010E056E000E066E045063
:1042E00006E0E86CD89005360636010FFCE3076A55
:1042F000035005160750061605500610D880E866CC
:10430000D890056A05360550D880E866D890056AC9
:1043100005360550036E046A7D0E0226050E042242
:1043200002C0E9FF04C0EAFFEFCF05F059C406F070
:10433000070E0616010E076E000E086E065006E008
:10434000E86CD89007360836010FFCE305C006F08C
:10435000096A065007160950081607500810D88039
:10436000E866D890076A07360750D880E866D89084
:10437000076A07360350071801E162D003501FE0B7
:1043800004015951066E070E0616010E076E0650FF
:104390000DE006E6E86CD8900736010FFDE306D085
:1043A000D89007BED8800732010FFBE305500712F3
:1043B00002C0E9FF04C0EAFF07C0EFFF26D002C039
:1043C000E9FF04C0EAFFEFCF05F004015951066E82
:1043D000070E0616010E076E06500DE006E6E86CA5
:1043E000D8900736010FFDE306D0D89007BED880DD
:1043F0000732010FFBE3071C066E0550061602C0CC
:10440000E9FF04C0EAFF06C0EFFF035003E1036ABF
:10441000032A01D0036A59C404F0E56A0350E56E2B
:10442000E56A0450E56E000EE56E6A0EE56EC20E9A
:10443000E56E2EEC36F0070EE126012A01C000F0F1
:104440000401592B100E595DD8A01BD7596B005091
:10445000E4CF09F0E4CF08F0E4CF07F0E4CF06F0B2
:10446000E4CF05F0E4CF04F0E4CF03F0E4CF02F0B2
:10447000E4CF01F0E4CF00F01200D9CFE5FFE1CFA7
:10448000D9FF00C0E5FF01C0E5FF02C0E5FF03C0A2
:10449000E5FF04C0E5FF05C0E5FF06C0E5FF07C076
:1044A000E5FF020EDBCF00F0030EDBCF01F0040EC0
:1044B000DBCF02F0050EDBCF03F0060EDBCF04F0FE
:1044C000070EDBCF05F0080EDBCF06F0090EDBCFC1
:1044D00007F000500501576F0150586F0250596F97
:1044E00003505A6F045005015B6F05505C6F065016
:1044F0005D6F07505E6F0501575105015D03F4CFF5
:1045000001F0F3CF00F000500501616F0150626FC0
:104510000501575105015B03F4CF01F0F3CF00F023
:10452000005005015F6F0150606F05015A51050190
:104530005B03F3CF00F00501625100260050626F6B
:104540000501595105015C03F3CF01F0015000262C
:1045500000500501626F0501595105015B03F4CF5D
:1045600001F0F3CF00F005016151002662510122F4
:104570000050616F0150626F0501585105015C03E5
:10458000F4CF03F0F3CF02F00250002603500122D3
:1045900000500501616F0150626F0501585105011E
:1045A0005D03F3CF00F000500501666F050158511F
:1045B00005015B03F4CF01F0F3CF00F000500501DB
:1045C000646F0150656F0501575105015E03F3CF1C
:1045D00000F0005005016A6F0501575105015C03A9
:1045E000F4CF01F0F3CF00F000500501686F0150E7
:1045F000696F0501636B0501676B05016351050177
:104600005F25006E0501645105016021016E050101
:10461000655105016121026E0501665105016221A6
:10462000036E00505F6F0150606F0250616F035066
:10463000626F0501675105015F25006E0501685134
:1046400005016021016E0501695105016121026EBC
:1046500005016A5105016221036E03C0E9FF02C032
:10466000F4FF01C0F3FF0050E4CF07F0E4CF06F001
:10467000E4CF05F0E4CF04F0E4CF03F0E4CF02F0A0
:10468000E4CF01F0E4CF00F0E4CFD9FF1200D9CF9E
:10469000E5FFE1CFD9FF00C0E5FF01C0E5FF02C0A3
:1046A000E5FF03C0E5FF04C0E5FF05C0E5FF06C068
:1046B000E5FF07C0E5FF08C0E5FF09C0E5FF0AC048
:1046C000E5FF0BC0E5FF0CC0E5FF0DC0E5FF0EC028
:1046D000E5FF0FC0E5FF020EDBCF00F0030EDBCFDE
:1046E00001F0040EDBCF02F0050EDBCF03F0060E67
:1046F000DBCF04F0070EDBCF05F0080EDBCF06F0B2
:10470000200E076E086A06C009F00A6A0B6A0C6A76
:10471000E56AE56AE56A0950E56E0350E56E025008
:10472000E56E0150E56E0050E56E46EC26F00D6E2C
:10473000080EE126300E0D263A0E0D5C05E30D50F5
:104740000E6E270E0E240D6EFF0E07260822D50EC4
:1047500007240E6E030E08200F6E0EC0E9FF0FC077
:10476000EAFF0DC0EFFF0C50E56E0B50E56E0A50EE
:10477000E56E0950E56E0350E56E0250E56E01509E
:10478000E56E0050E56E37EC29F0006EF3CF01F0D6
:10479000F4CF02F0E9CF03F0080EE126005001103B
:1047A00002100310D8A4AFD707C000F008C001F072
:1047B00004C002F005C003F000C004F001C005F021
:1047C000004A012AD50E0426030E052204C0E9FF83
:1047D00005C0EAFFEFCF04F002C0E9FF03C0EAFF23
:1047E00004C0EFFF024A032A000E015C02E1200E22
:1047F000005CE2E302C0E9FF03C0EAFF000EEF6ADB
:10480000E4CF0FF0E4CF0EF0E4CF0DF0E4CF0CF0E6
:10481000E4CF0BF0E4CF0AF0E4CF09F0E4CF08F0E6
:10482000E4CF07F0E4CF06F0E4CF05F0E4CF04F0E6
:10483000E4CF03F0E4CF02F0E4CF01F0E4CF00F0E6
:10484000E4CFD9FF1200D9CFE5FFE1CFD9FF00C0F7
:10485000E5FF01C0E5FF02C0E5FF03C0E5FF04C0BE
:10486000E5FF05C0E5FF06C0E5FF07C0E5FF08C09E
:10487000E5FF09C0E5FF0AC0E5FF0BC0E5FF0CC07E
:10488000E5FF0DC0E5FF020EDBCF00F0030EDBCF2E
:1048900001F0040EDBCF02F0050EDBCF03F0060EB5
:1048A000DBCF04F0070EDBCF05F0080EDBCF06F000
:1048B000090EDBCF07F0D88003AED890086A08361F
:1048C00008500FE0031C0C6E021C0B6E011C0A6EDC
:1048D000001C096E092A0DE10A2A0BE10B4A0C2A79
:1048E00008D000C009F001C00AF002C00BF003C0FC
:1048F0000CF0D88007AED890006A003600500FE068
:10490000071C0D6E061C036E051C026E041C016E56
:10491000012A0DE1022A0BE1034A0D2A08D004C046
:1049200001F005C002F006C003F007C00DF00D5005
:10493000E56E0350E56E0250E56E0150E56E0C50D9
:10494000E56E0B50E56E0A50E56E0950E56E37ECEA
:1049500029F0016EF3CF02F0F4CF03F0E9CF04F0B9
:10496000080EE1260050081A085016E0041C076ED5
:10497000031C066E021C056E011C006E002A04E179
:10498000052A02E1064A072A07C0E9FF06C0F4FF2C
:1049900005C0F3FF005007D004C0E9FF03C0F4FFD7
:1049A00002C0F3FF0150E4CF0DF0E4CF0CF0E4CFF0
:1049B0000BF0E4CF0AF0E4CF09F0E4CF08F0E4CF45
:1049C00007F0E4CF06F0E4CF05F0E4CF04F0E4CF45
:1049D00003F0E4CF02F0E4CF01F0E4CF00F0E4CF45
:1049E000D9FF120000C0E5FF01C0E5FF02C0E5FFEE
:1049F00003C0E5FF04C0E5FF05C0E5FF006A100E37
:104A00000024016E026A050E022201C0E9FF02C005
:104A1000EAFFEFCF01F00150FF0A01E185D0013834
:104A20000F0B026E036A800E02260F0E032202C0D5
:104A3000E9FF03C0EAFFEFCF02F0070E0116010EF7
:104A4000036E000E046E015006E0E86CD890033649
:104A50000436010FFCE3056A0250031605500416E4
:104A600003500410D880E866D890036A03360350D8
:104A70002DE10038E8441F0B016E026A7F0E01260B
:104A8000050E022201C0E9FF02C0EAFFEFCF03F0EA
:104A90000050046E070E0416010E056E04500DE062
:104AA00006E6E86CD8900536010FFDE306D0D890F5
:104AB00005BED8800532010FFBE30350051201C08B
:104AC000E9FF02C0EAFF05C0EFFF2ED00038E8443E
:104AD0001F0B016E026A7F0E0126050E022201C025
:104AE000E9FF02C0EAFFEFCF03F00050046E070EAB
:104AF0000416010E056E04500DE006E6E86CD89031
:104B00000536010FFDE306D0D89005BED8800532EA
:104B1000010FFBE3051C046E0350041601C0E9FFFE
:104B200002C0EAFF04C0EFFF002A100E005CD8A00C
:104B300066D7E4CF05F0E4CF04F0E4CF03F0E4CF90
:104B400002F0E4CF01F0E4CF00F0120000C0E5FF76
:104B500001C0E5FF02C0E5FF03C0E5FF05C0E5FFBA
:104B600090EC38F0006E010A11E00050020A13E0E8
:104B70000050780A15E00050790A1DE00050960AAE
:104B800025E00050970A01E14CD075D090EC38F048
:104B900004017F6F70D090EC38F00401396F6BD056
:104BA000800EE56E040EE56E930EE56E49EC0FF097
:104BB000030EE12660D0800EE56E030EE56E000E5A
:104BC000E56E49EC0FF0030EE12655D090EC38F07D
:104BD000006A016E90EC38F0036A0026035001224F
:104BE0000050020BE840010BE838E844F46E0F0176
:104BF0005D51DF0BF4105D6F0050010B010BE838C5
:104C0000F46E5D51EF0BF4105D6FD8900130036EC0
:104C10000030026ED8900332023202500F015E6FF4
:104C20002AD090EC38F0026A036E90EC38F0056AF6
:104C30000224006E05500320016E0050020BE84074
:104C4000010BE838E844F46E0F015751DF0BF41004
:104C5000576F0050010B010BE838F46E5751EF0B02
:104C6000F410576FD89001320032D89001320032E0
:104C700000500F01586FE4CF05F0E4CF03F0E4CF0C
:104C800002F0E4CF01F0E4CF00F01200D9CFE5FF4D
:104C9000E1CFD9FF00C0E5FF01C0E5FF02C0E5FF9D
:104CA00003C0E5FF04C0E5FF05C0E5FF06C0E5FF62
:104CB00007C0E5FF08C0E5FF09C0E5FF0AC0E5FF42
:104CC000020EDBCF00F0030EDBCF01F0040EDBCFD2
:104CD00002F0050EDBCF03F0060EDBCF04F0070E6B
:104CE000DBCF05F0080EDBCF06F0090EDBCF07F0B7
:104CF000086A045005100610071005E1E968F46819
:104D0000F368E86847D0096A0750800BE8440A6EE8
:104D10000A501BE1045004260536063607360750B4
:104D2000035C08E10650025C05E10550015C02E10C
:104D30000450005C06E2D890073206320532043295
:104D400004D0092A09C008F0DFD70750035C08E146
:104D50000650025C05E10550015C02E10450005C74
:104D600008E30450005E0550015A0650025A0750ED
:104D7000035AD890073206320532043208C009F0CF
:104D800008060950E2E103C0E9FF02C0F4FF01C0D8
:104D9000F3FF0050E4CF0AF0E4CF09F0E4CF08F0CD
:104DA000E4CF07F0E4CF06F0E4CF05F0E4CF04F061
:104DB000E4CF03F0E4CF02F0E4CF01F0E4CF00F061
:104DC000E4CFD9FF120000C0E5FF01C0E5FF02C03B
:104DD000E5FF03C0E5FF04C0E5FF050187510501BC
:104DE000861901E16AD087C500F00050016E0128E4
:104DF000006E009E600E0024016E026A000E022208
:104E000001C0E9FF02C0EAFFEFCF91F51F0E0501D7
:104E1000911787C590F59151050190279051016E2A
:104E2000020E0124906F909F90EC38F0016E0150BB
:104E300003E1016A012A01D0016A90EC38F0050112
:104E4000916F91C502F0800E021691C503F01F0EFE
:104E5000031603C004F003C091F5045003E186C5B6
:104E600087F53ED001501EE0025025E090EC38F06E
:104E7000006E05019151016E0104916F0050420ACC
:104E80001AE000504E0A03E1ABEC35F014D00050AC
:104E9000460A03E1B8EC3BF00ED00050490A0BE1A2
:104EA000FF0009D087C592F5025003E054EC32F0C0
:104EB00002D0A6EC25F090C587F504013F5104010E
:104EC000401906E00501885103E17BEC27F008D08A
:104ED00092BA06D00501885103E172B284EC3BF02E
:104EE000E4CF04F0E4CF03F0E4CF02F0E4CF01F02C
:104EF000E4CF00F0120000C0E5FF01C0E5FF02C0F2
:104F0000E5FF03C0E5FF04C0E5FF72A27ED099EC87
:104F100039F0006E005005E10401406B04013F6B65
:104F200074D040C401F00050012699EC39F0026EB3
:104F30000050036E0304006E0250230A1FE1010EAD
:104F4000005CD8A060D099EC39F0026E690A03E1E8
:104F500035EC38F058D00250720A03E184EC3BF093
:104F600052D00250730A01E04ED0928A7186A38A11
:104F7000A398745074507198718845D00250430AB8
:104F800005E00250420A01E03ED006D000C003F026
:104F9000046A038E0350006E00C08AF500500401BD
:104FA000006F010E05018B6F04014051011814E0E0
:104FB00099EC39F0026E05018A27000E05018B2558
:104FC000006E036A040E032200C0E9FF03C0EAFF7B
:104FD00002C0EFFF8B2BE8D7000E05018B25006E7A
:104FE000026A040E022205018A1D036E032A00C014
:104FF000E9FF02C0EAFF03C0EFFF05018B2B8BC561
:1050000088F50501826B01C040F4E4CF04F0E4CFE1
:1050100003F0E4CF02F0E4CF01F0E4CF00F012009F
:10502000D9CFE5FFE1CFD9FF00C0E5FF01C0E5FF23
:1050300002C0E5FF03C0E5FF04C0E5FF05C0E5FFD2
:1050400006C0E5FF07C0E5FF020EDBCF00F0030E50
:10505000DBCF01F0040EDBCF02F000500B0F036E2C
:10506000000E0120046E000E0220E56AF46AF66A62
:10507000F76A03C0E9FF04C0F3FF45EC3BF00050C2
:10508000070F036E000E0120046E000E0220056E55
:105090000050030F066E000E0120076E000E022066
:1050A000E56AF46AF66AF76A06C0E9FF07C0F3FF2B
:1050B00045EC3BF0E56AF46AF66AF76A03C0E9FF7B
:1050C00004C0F3FF055045EC3BF00050010F036EA8
:1050D000000E0120046E000E0220056E0050020F2B
:1050E000066E000E0120076E000E0220E56A06C063
:1050F000E9FF07C0F3FFCEEC3BF0E56A03C0E9FF30
:1051000004C0F3FF0550CEEC3BF0E56A00C0E9FFB8
:1051100001C0F3FF0250CEEC3BF0E4CF07F0E4CF48
:1051200006F0E4CF05F0E4CF04F0E4CF03F0E4CFE1
:1051300002F0E4CF01F0E4CF00F0E4CFD9FF120099
:1051400025642025640A0000D9CFE5FFE1CFD9FF0F
:1051500000C0E5FF01C0E5FF02C0E5FF03C0E5FFB9
:1051600004C0E5FF05C0E5FF06C0E5FF07C0E5FF99
:1051700008C0E5FF09C0E5FF0AC0E5FF020EDBCF6E
:1051800000F0030EDBCF01F0040EDBCF02F0050EC2
:10519000DBCF03F0060EDBCF04F0070EDBCF05F00C
:1051A0000038E8441F0B066E076A7B0E0626050EC4
:1051B000072206C0E9FF07C0EAFFEFCF08F0005062
:1051C000096E070E0916010E0A6E09500DE006E67B
:1051D000E86CD8900A36010FFDE306D0D8900ABEDD
:1051E000D8800A32010FFBE308500A1206C0E9FF1B
:1051F00007C0EAFF0AC0EFFF000E0024066E076A30
:10520000050E072206C0E9FF07C0EAFF01C0EFFF55
:10521000016AE80E0026040E0122800E025E070ECF
:1052200002160238F00B036E070E05160550032612
:1052300000C0E9FF01C0EAFF03C0EFFFE4CF0AF0BE
:10524000E4CF09F0E4CF08F0E4CF07F0E4CF06F0B4
:10525000E4CF05F0E4CF04F0E4CF03F0E4CF02F0B4
:10526000E4CF01F0E4CF00F0E4CFD9FF1200D9CFB2
:10527000E5FFE1CFD9FF00C0E5FF01C0E5FF02C0B7
:10528000E5FF03C0E5FF04C0E5FF05C0E5FF06C07C
:10529000E5FF07C0E5FF08C0E5FF09C0E5FF0AC05C
:1052A000E5FF0BC0E5FF0CC0E5FF0DC0E5FF020EFA
:1052B000DBCF00F0030EDBCF01F0040EDBCF02F0FA
:1052C000050EDBCF03F0060EDBCF04F0070EDBCFBD
:1052D00005F0080EDBCF06F0090EDBCF07F0086AF9
:1052E000096A0A6A0B6A200E0C6E0350800BE844B0
:1052F0000D6E00500026013602360336085008268F
:1053000009360A360B360D50D8A4088007500B5CBE
:1053100008E106500A5C05E10550095C02E1045011
:10532000085C09E30450085E0550095A06500A5A01
:1053300007500B5A00800C040D6E0DC00CF00D5080
:10534000D4E103C0E9FF02C0F4FF01C0F3FF005045
:10535000E4CF0DF0E4CF0CF0E4CF0BF0E4CF0AF093
:10536000E4CF09F0E4CF08F0E4CF07F0E4CF06F093
:10537000E4CF05F0E4CF04F0E4CF03F0E4CF02F093
:10538000E4CF01F0E4CF00F0E4CFD9FF120000C079
:10539000E5FF01C0E5FF03C0E5FF04C0E5FF05C070
:1053A000E5FF06C0E5FF07C0E5FF08C0E5FF09C04F
:1053B000E5FF0AC0E5FF0BC0E5FF71C500F072C54F
:1053C00001F00501713F01D0722B0050E56E76ECC3
:1053D0003BF0E652076E046A056A066A71C500F082
:1053E00072C501F00501713F01D0722B0050E56ECE
:1053F00076EC3BF0E6520B6A0A6E086A085004121B
:1054000005120A5006120B50071271C500F072C542
:1054100001F00501713F01D0722B0050E56E76EC72
:105420003BF0E652036E006A03C001F0E86A03BE77
:10543000FF0E086E096E005004120150051208504C
:1054400006120950071271C500F072C501F005017E
:10545000713F01D0722B0050E56E76EC3BF0E652C6
:10546000016A0412015005120612071207C0E9FF73
:1054700006C0F4FF05C0F3FF0450E4CF0BF0E4CF07
:105480000AF0E4CF09F0E4CF08F0E4CF07F0E4CF6E
:1054900006F0E4CF05F0E4CF04F0E4CF03F0E4CF6E
:1054A00001F0E4CF00F01200D9CFE5FFE1CFD9FF42
:1054B00000C0E5FF01C0E5FF02C0E5FF03C0E5FF56
:1054C00004C0E5FF05C0E5FF06C0E5FF07C0E5FF36
:1054D000020EDBCF00F0030EDBCF01F0040EDBCFBA
:1054E00002F0050EDBCF03F003C004F0056A0350A1
:1054F000D8B454D000C0E9FF01C0F3FF025056EC0D
:105500003BF0066E430A08E1010E056E03C006F08B
:10551000076A068E0650036E0406002A02E3014A5B
:10552000022AA39A7198929AA398A4A8FED772808F
:10553000736A0000A4A8FED7729003C073FF000036
:10554000A4A8FED7055004E0420E736E032604D0D3
:10555000620E736E620E0326045015E00000A4A8CC
:10556000FED700C0E9FF01C0F3FF025056EC3BF04C
:10557000056E05C073FF055003260406002A02E3EA
:10558000014A022AE9D70000A4A8FED7031C736EC3
:10559000732A0000A4A8FED784EC3BF0E4CF07F008
:1055A000E4CF06F0E4CF05F0E4CF04F0E4CF03F05D
:1055B000E4CF02F0E4CF01F0E4CF00F0E4CFD9FF74
:1055C0001200D9CFE5FFE1CFD9FF00C0E5FF01C050
:1055D000E5FF02C0E5FF03C0E5FF04C0E5FF05C02D
:1055E000E5FF06C0E5FF07C0E5FF08C0E5FF0BC00B
:1055F000E5FF0CC0E5FF0DC0E5FF020EDBCF00F0BC
:10560000030EDBCF01F0040EDBCF02F0050EDBCF83
:1056100003F0060EDBCF04F003C0E5FF04C0F4FF87
:1056200000C0E9FF01C0F3FF0250A0EC3BF00050C6
:10563000020F056E000E0120066E000E0220076E9E
:10564000E86A04BEFF0E086E04500C6E0C26083487
:105650000D6ED8900C360D360344E844FC0B0B6EEF
:105660000350E844E844030B0C12E56A0BC0F4FF56
:105670000CC0F6FF0DC0F7FF05C0E9FF06C0F3FF41
:10568000075045EC3BF0080E0026000E01220222D6
:10569000E56AF46AF66AF76A00C0E9FF01C0F3FF41
:1056A000025045EC3BF0E4CF0DF0E4CF0CF0E4CF3A
:1056B0000BF0E4CF08F0E4CF07F0E4CF06F0E4CF3E
:1056C00005F0E4CF04F0E4CF03F0E4CF02F0E4CF40
:1056D00001F0E4CF00F0E4CFD9FF1200D9CFE5FF0D
:1056E000E1CFD9FF00C0E5FF01C0E5FF02C0E5FF43
:1056F00003C0E5FF04C0E5FF05C0E5FF06C0E5FF08
:1057000007C0E5FF020EDBCF00F0030EDBCF01F098
:10571000040EDBCF02F0050EDBCF03F002C006F073
:105720000650046E800A33E100C0E9FF01C0F3FFB8
:10573000025010EC3AF0056EF3CF06F0F4CF07F00C
:1057400003C0E5FF05C0E9FF06C0F3FF0750CEEC3C
:105750003BF000C0E9FF01C0F3FF025010EC3AF04B
:10576000056EF3CF06F0F4CF07F0052A02E3064AF0
:10577000072A05C0E5FF06C0F4FF07C0F6FF00C01A
:10578000E9FF01C0F3FF025067EC3BF020D004C0FA
:1057900000F000AA1CD0007A0050046E04E103500F
:1057A0000FEC3CF014D00450010A04E1035002EC69
:1057B00000F00DD004500F0A04E1035004EC38F05F
:1057C00006D004500E0A03E103501FEC3CF0E4CF76
:1057D00007F0E4CF06F0E4CF05F0E4CF04F0E4CF27
:1057E00003F0E4CF02F0E4CF01F0E4CF00F0E4CF27
:1057F000D9FF1200D9CFE5FFE1CFD9FF00C0E5FF07
:1058000001C0E5FF02C0E5FF03C0E5FF04C0E5FFFE
:1058100005C0E5FF06C0E5FF07C0E5FF020EDBCFD0
:1058200000F0030EDBCF01F0040EDBCF02F0050E1B
:10583000DBCF03F040C441F404013F510401415F58
:105840004151046E0404416F03C004F0056A030E65
:105850000426D8B0052A41C406F0076A0750800F15
:10586000F36E0550800FF35C02E10450065C02E227
:10587000E86830D0020E035C02E2E86A2BD00350E5
:10588000046E0404036EE56EEAEC36F0E652046A38
:105890000350045C14E204500024056EE86A012001
:1058A000066EE86A022005C0E9FF06C0F3FF56EC69
:1058B0003BF0042AE56EEAEC36F0E652E9D740C444
:1058C00041F404013F510401415F4151006E000465
:1058D000416FE86AE4CF07F0E4CF06F0E4CF05F0CB
:1058E000E4CF04F0E4CF03F0E4CF02F0E4CF01F022
:1058F000E4CF00F0E4CFD9FF120000C0E5FF01C003
:10590000E5FF02C0E5FF03C0E5FF04C0E5FF006A54
:105910007B0E0024016E026A050E022201C0E9FF1F
:1059200002C0EAFFEF6A002A020E005CF1E3006A9F
:105930000050020DF450026EF3CF01F0E00E01248E
:10594000036E000E0220046E03C0E9FF04C0EAFFEC
:10595000EE6AEF6A5B0E0124036E040E0220046EF1
:1059600003C0E9FF04C0EAFFEE6AEF6A550E0124A6
:10597000036E030E0220046E03C0E9FF04C0EAFFB9
:10598000EE6AEF6A750E0124036E030E0220046EA8
:1059900003C0E9FF04C0EAFFEE6AEF6A950E012634
:1059A000030E022201C0E9FF02C0EAFFEE687F0E8B
:1059B000EF6EE80E0024016E026A040E022201C09E
:1059C000E9FF02C0EAFFEF68002A100E005CD8A0D1
:1059D000AFD7AF0EC06EC16A010EC26EC282E4CFF5
:1059E00004F0E4CF03F0E4CF02F0E4CF01F0E4CF21
:1059F00000F012004320412025642025640A0000A5
:105A0000D9CFE5FFE1CFD9FF00C0E5FF01C0E5FF39
:105A100002C0E5FF03C0E5FF04C0E5FF05C0E5FFE8
:105A200006C0E5FF07C0E5FF08C0E5FF09C0E5FFC8
:105A30000AC0E5FF0BC0E5FF0CC0E5FF020EDBCF9F
:105A400000F0030EDBCF01F0040EDBCF02F0050EF9
:105A5000DBCF03F0060EDBCF04F0070EDBCF05F043
:105A6000080EDBCF06F0090EDBCF07F002500A6EFE
:105A70000150096E0050086E06C00BF007C00CF014
:105A8000FF0E062607220B500C101AE003C0E9FF98
:105A900004C0F3FF055056EC3BF00B6E032A02E303
:105AA000044A052A0BC0E5FF08C0E9FF09C0F3FF5F
:105AB0000A50CEEC3BF0082ADFE3094A0A2ADCD779
:105AC00002C0F4FF01C0F3FF0050E4CF0CF0E4CFBC
:105AD0000BF0E4CF0AF0E4CF09F0E4CF08F0E4CF14
